:1000000000800020BD01000081CB000039CB000042
:1000100039CB000039CB000039CB000039CB0000D0
:1000200039CB000039CB000039CB000081CB000078
:1000300081CB000039CB000081CB000029CB000030
:1000400081CB000081CB000081CB000081CB000080
:1000500081CB000081CB000081CB000081CB000070
:1000600081CB000081CB000081CB000081CB000060
:1000700081CB000081CB000081CB000081CB000050
:1000800081CB000081CB000081CB000081CB000040
:1000900081CB000081CB000081CB000081CB000030
:1000A00081CB000081CB000081CB000081CB000020
:1000B00081CB000081CB000081CB000081CB000010
:1000C00081CB000081CB000081CB000081CB000000
:1000D00081CB000081CB000081CB000081CB0000F0
:1000E00081CB000081CB000081CB000081CB0000E0
:1000F00081CB000085E7000081CB0000E1EE00002D
:1001000081CB00005DF4000081CB000081CB0000BA
:1001100081CB000081CB000081CB000081CB0000AF
:1001200081CB000081CB000081CB000081CB00009F
:1001300081CB000081CB000081CB000081CB00008F
:1001400081CB000081CB000081CB000081CB00007F
:1001500015DF00002DDF000045DF00005DDF00003F
:1001600081CB0000F1D0000081CB000081CB0000EA
:1001700081CB000081CB000081CB000081CB00004F
:1001800081CB000081CB000081CB000081CB00003F
:1001900081CB000081CB000081CB000081CB00002F
:1001A00081CB000081CB000081CB000081CB00001F
:1001B00081CB000081CB000081CB0000574B4CF27B
:1001C000205210B51A804DF628121A8000BF00BFC9
:1001D0000CF0DAFC524B4FF010621A60514A9A60F0
:1001E000514ADA60A3F53043203B1A6812F480725A
:1001F00004D14E490A604FF4A8521A604C4B1A7849
:10020000110703D51A7842F008021A70494B4A4C7C
:100210004A482A221A704A4A00239918A14203D256
:10022000195899500433F8E7464B474900228B424E
:1002300002D243F8042BFAE74448454900235A58B0
:100240001A500433B3F5DE7FF9D1424B424A802184
:1002500003F8011B9342FBD1404B3C4A1A60404BD0
:100260008A221A70A3F5805324225A70A0221A7091
:100270009A799207FCD59A79D406FCD4394A9379B5
:1002800003F00C03082B374BF9D103221A714622D5
:100290005A719A799006FCD5324A9179314B4906C8
:1002A000FBD5314A4FF08271116009215160202243
:1002B0001A709A7902F00C020C2AFAD12B4B2C4AB4
:1002C0001A602C4B2C4A1A6000225A60072243F80D
:1002D000042C2A4AC3F80C2D62B60CF0C5FD134B52
:1002E0001B68DA0705D526480CF062FD254B264A27
:1002F0001A60264B1B785B0609D5224C224A2368DC
:10030000934204D11E480CF053FD0023236011F0EA
:100310001BFC0CF03FFC0DF061FEFEE70E200540DB
:1003200030800440823F04000100002B14D00340C1
:1003300002D0074000E00740A49DFF1FB4930100D6
:100340006087FF1FA89DFF1F30CCFF1F0082FF1F8B
:100350000000000000E400E05FE400E008ED00E0E1
:1003600000500640004006404480044004800440A1
:10037000C010050014E000E0BFD401000000202000
:100380007F19975A1CE00340A5C3945A00F0074018
:10039000FFFFFFFFFFFFFFFFFFFFFFFFFFFFFFFF6D
:1003A000FFFFFFFFFFFFFFFFFFFFFFFFFFFFFFFF5D
:1003B000FFFFFFFFFFFFFFFFFFFFFFFFFFFFFFFF4D
:1003C000FFFFFFFFFFFFFFFFFFFFFFFFFFFFFFFF3D
:1003D000FFFFFFFFFFFFFFFFFFFFFFFFFFFFFFFF2D
:1003E000FFFFFFFFFFFFFFFFFFFFFFFFFFFFFFFF1D
:1003F000FFFFFFFFFFFFFFFFFFFFFFFFFFFFFFFF0D
:10040000FFFFFFFFFFFFFFFFFFFFFFFFDEF9FFFF23
:1004100010B5054C237833B9044B13B10448AFF33E
:1004200000800123237010BDA89DFF1F0000000065
:10043000AC93010008B5064B1BB106480649AFF363
:1004400000800648036813B1054B03B1984708BD07
:1004500000000000AC930100AC9DFF1FA49DFF1F96
:100460000000000038B5002105464FF0FF32234858
:100470000CF082F9214810214FF0FF320CF086F980
:100480001E4804214FF0FF320CF08AF91B4803216B
:100490004FF0FF320CF08EF94FF0FF321748102169
:1004A0000CF092F915484FF0FF310CF0A1F9134808
:1004B0004FF0FF310CF092F910484FF0FF310CF083
:1004C000A1F90F4B0D48002411214FF0FF321C60A1
:1004D0000CF0A2F90B4B0C4A1D602146A2F110034F
:1004E00043F8041B9342FBD1084A0021A2F11003F8
:1004F00043F8041B9342FBD138BD00BFD89DFF1FBA
:100500003C9FFF1FD49DFF1FD49DFF1F509FFF1FC7
:1005100001480CF003B900BFD89DFF1FF0B5264C71
:100520002649274D83B04FF47A73022600930C2797
:10053000204678223C23A76066600BF07BFC2149B3
:1005400066601623A3600B68A3FB05234A68A2FB21
:1005500005028968A1FB05171B480097642101FB70
:1005600003F1A0FB017149090191204617490BF0E5
:1005700061FC174966602023A3604A68A2FB05322C
:100580000B68A3FB05038968A1FB05501149009086
:1005900020460BF04FFC104A104B12681B681049A4
:1005A00066602A252046A5600BF044FC3423666073
:1005B000A36003B0F0BD00BFF8C8FF1FF05C0100EE
:1005C00022222202709FFF1F89888888005D010017
:1005D000509FFF1F185D0100609FFF1F5C9FFF1F62
:1005E000285D01002DE9F041DFF8AC80234F244E57
:1005F000D8F80030234C18883A683368224902251D
:10060000A0EB12224FF00C0E20461B0AC4F808E0A3
:1006100065600BF00FFCD8F800307A685888736872
:100620001A4965604FF0160EA0EB12221B0A2046F5
:10063000C4F808E00BF0FEFBD8F80030BA689888E0
:10064000B368134965604FF0200EA0EB12221B0A1D
:100650002046C4F808E00BF0EDFBD8F80030FA684B
:10066000D888F36865602A25A0EB1222A560204691
:1006700008491B0ABDE8F0410BF0DCBB409FFF1F9F
:10068000C49DFF1FF8C8FF1F385D0100445D0100D5
:10069000505D01005C5D0100D49DFF1F30B5144C1E
:1006A00083B000214023204600930A4680230BF0AC
:1006B00073FA00220C2320460E496260A3600BF0FF
:1006C00087FB0D480D494268022516236560A3602B
:1006D000A2FB01320368A3FB01538068A0FB011059
:1006E0000749009020460BF0A5FB03B030BD00BFCA
:1006F000F8C8FF1F685D0100649FFF1F22222202CD
:100700006C5D01000D4A116808B541F080710C4B19
:1007100011601A6842F001021A601E2001210CF0DB
:100720005FFB01211D200CF05BFB064B4FF40061C9
:100730004FF4806219601A6008BD00BFFCED00E054
:10074000001000E088F00F402DE9F043044683B02C
:100750003848394FDFF8EC800BF020F83D4646462C
:10076000D8F80828D8F80C38D31A022B2AD0D6F893
:10077000083803F0010303F5007356F8231009B39A
:10078000DFF8C490012248460BF02AF8EA1BD21089
:100790004FF0020E0132032348462849C9F804E00D
:1007A000C9F808E00BF046FB484629680BF010FB3F
:1007B0006B68984748460BF021F8D6F808380133A3
:1007C000C6F80838002004F15C01D4F8DC20D4F825
:1007D000E0309A4219D0D4F8E03003F00F0201EB78
:1007E000C20201335288C4F8E030082A1DD0042A1E
:1007F000EBD1AB68DBB1EB68CBB1D4F8DC20D4F83B
:10080000E0309A4205F10805E5D10028A8D0002380
:100810000B4AC4F8E030C4F8DC3013680193019B44
:10082000C4F8E43003B0BDE8F0830120CDE7024D09
:10083000CBE700BF805D0100D05C0100945D01004A
:100840000CC9FF1FE8C0FF1FF8C8FF1F10B40948FC
:10085000094C0A4A00234FF0FF312360A360616016
:100860000360416083605160136093605DF8044BE6
:10087000704700BF509FFF1F709FFF1F649FFF1FA7
:10088000014B00221A607047889FFF1FF8B50D4C7E
:1008900004F1100725786668284602210CF0A0FABA
:1008A00008342846314602220CF000FABC42F1D14D
:1008B0000549064A064800230B7013600360536025
:1008C000F8BD00BFB45D01008C9FFF1F809FFF1F1C
:1008D000889FFF1F074B1A6812B100221A6001227D
:1008E0005B68044913B100234B60022302491343A0
:1008F0000B607047809FFF1F889FFF1F00230F2200
:10090000012180F823200170437080F82230436277
:100910008362821ED90102320133102B5180F9D13A
:10092000704700BF70B4141C18BF0124047074B168
:1009300032F8136000231A46C51802339419202B8D
:100940006A80A2B2F8D1012380F82310437070BCF2
:10095000704700BFF0B40678002E6AD04378002BB1
:1009600070D0841D0D250FB2002D11DD6A1004EB2F
:10097000420634F91230BB4205DC5DE034F9135015
:10098000BD425BDD1A46531004EB4306002AF5D145
:1009900000F1020CCCEB040C4FEA6C0CACF102033E
:1009A0009BB20FFA8CFC1AB2944556DB4FF6FF76D9
:1009B0004FF4007400EB420227B2B2F902504D1B13
:1009C000002DB8BF6D42ADB22AB2BA4203F10102A6
:1009D000B8BF1E4693B21AB2B8BF2C469445E9DAA6
:1009E00036B23346741E721C00EB430300EB420226
:1009F0005B88B2F9021000EB44041AB2658801EB7F
:100A0000C1010727C2EBC202092413FB071315FB20
:100A100004221B111211002E836242621BDB90F92B
:100A200023309E42A8BF1E46F6B2002380F8226003
:100A3000437070B2F0BC704713462A46D31A5D1E4D
:100A4000B41C91E7436A8B428BDC836A994288DC51
:100A500090F82260EDE70026E7E74FF0FF331E46EF
:100A600000226FF00104BFE72DE9F84F26A7D7E970
:100A70000067DFF8A8A0DFF8A8B0254D4FF00A09FD
:100A80004FF000084FF0FF3414E010F063FE2149EE
:100A900010F0B4FE10F03EFA04460D460EF050FF82
:100AA00006460F46204629460EF084FF09F101094B
:100AB00004460D460022184B3046394610F07EFAA7
:100AC00010F03EFD10F0EAFF0022134B4AF8080038
:100AD0002946204610F072FA10F032FD10F0DEFFC9
:100AE0008BFB09234FEAE972C2EB63030AEB0802AE
:100AF00008F1080803EB4303B8F1600F5060A9EB5D
:100B00008300C2D1BDE8F88FADB161B9C59B493E44
:100B1000FFFFEFBF920A063F00003C40909FFF1F7F
:100B2000ABAAAA2AAFF3008038B5012105460520FB
:100B30000CF056F9062001210CF052F90720012192
:100B40000CF04EF9082001210CF04AF90220012195
:100B50000CF046F9054B064C1D6000231946236036
:100B600004486022BDE8384011F0BABA08A0FF1F5F
:100B700070A0FF1F0CA0FF1F1549164B164870B43C
:100B80000E68164D164C4FF4107246F480560E60E7
:100B90002A60226018601A6842F440621A601A687B
:100BA00051040DD442F480414FF0384441F001012A
:100BB0004FF078401960DC60186170BC1A607047B3
:100BC0004FF038414FF07842D96070BC1A617047DD
:100BD0003C80044000C0024000001F8018B0044068
:100BE00004C0044018B9044B80221A607047034BBC
:100BF00080221A60704700BFC8F00F40C4F00F4059
:100C000018B9044B10221A607047034B10221A6067
:100C1000704700BFC8F00F40C4F00F4018B9044B34
:100C200004221A607047034B04221A60704700BF09
:100C3000C8F00F40C4F00F40084B0949094A70B48E
:100C40001C6840F6FF7544F48054A84228BF28462B
:100C5000C0261C600880167070BC70472C80044051
:100C600000C00C4021C00C4018B9044B08221A6087
:100C70007047034B08221A60704700BFC8F00F404E
:100C8000C4F00F4018B9044B01221A607047034B9F
:100C900001221A60704700BFC8F00F40C4F00F4037
:100CA000F0B4094F0026094C0FCCBD19B85169604A
:100CB000AA60EB600FCC2036802E28616961AA61A2
:100CC000EB61F0D1F0BC7047ACA0FF1FDC5D010010
:100CD00010B40E4C0022A4F180000023C15E023348
:100CE000202B0A44FAD12030A042F6D152B9084B49
:100CF000084A19880023D1520233202BFBD120321D
:100D00009442F7D15DF8044B704700BF2CA1FF1F40
:100D1000DCBCFF1FACA0FF1F0BF074BE704700BF10
:100D20002DE9F041274C002305460360064604F1F7
:100D30001008FF2754F8040FC0B2706002210CF0B5
:100D40004FF8444506F8087FF4D105F1240305F176
:100D50003401002243F8042B99424FF00004F9D1EA
:100D60000F200221AC86EC8685F83840FF260CF077
:100D700037F8102002210CF033F81620022185F8F4
:100D80003C4085F83D402C646C6485F8496085F8EA
:100D900048600CF025F8152002210CF021F885F8A8
:100DA000596085F85860C5F8E04085F84C4085F8F2
:100DB0004D402C656C65C5F8DC40C5F8E440BDE8E5
:100DC000F08100BF6C6D010038B5094B0C4605463B
:100DD00053F82110074822460AF0E0FC04F0010312
:100DE000C4F3400485F83D3085F84D4038BD00BF60
:100DF000945E0100F46C01002DE9F043DFF8C88037
:100E000083B0044689466E460127D4F8DC20D4F826
:100E1000E0309A4225D0D4F8E030E58E03F00F029E
:100E200004EBC2025C3292E8030086E80300BDF8DE
:100E3000022001331542C4F8E03094F8383024D150
:100E400043BB9DF80000022828D003282DD001289C
:100E500026D0D4F8DC20D4F8E030C8F800709A42EC
:100E6000D9D1184AD4F8E43012680092009946F2B9
:100E7000A812CB1A934221D994F83800D0B9012393
:100E800084F8383003B0BDE8F08325EA0202E28638
:100E9000002BBAD0002384F83830B6E7082AF1D006
:100EA000D9F8283068469847D3E7D9F82C306846F7
:100EB0009847CEE7002003B0BDE8F083012003B0DF
:100EC000BDE8F0830CC9FF1F5493FF1F2DE9F04FBD
:100ED000624A634D1368634F87B08B460493049B4B
:100EE00003932E468246BAF834305C4913F0040F5F
:100EF0000A68059214BF4FF003084FF0010803F091
:100F0000030213F0080F18BF4FF00208033A5342D0
:100F10005341DDF814908BF80030D5F80828D5F847
:100F20000C38D31A022BF8D0D6F8083803F0010396
:100F300003F5007356F823100029EED0494801222A
:100F40000AF04EFC02240C228023464800210AF0BD
:100F5000A7FD444844497C60BC600AF039FF112376
:100F6000404842497C60BB600AF032FFB8F1030F91
:100F700063D03C483E4944601D2383600AF028FF4B
:100F8000B8F1020F50D09BF800300221292279607D
:100F9000BA60002B43D102227A60039A3148354966
:100FA0003523C2EB0904BB600AF012FFB4F57A7F67
:100FB00033D3039901F6E833C9EB0303C3F31413E6
:100FC0000222009227483E2200210AF01BFCDAF898
:100FD000DC20DAF8E0309A420AD0DAF8E030013367
:100FE000CAF8E030DAF8DC20DAF8E0309A42F4D1DE
:100FF0001C480AF003FCD5F8082840F6E733013214
:101000009C42C5F808287FF66EAFBAF83430AAF8CB
:101010003630404607B0BDE8F08F8023D0E7114856
:1010200015490AF0D5FEB6E70C2300930D4841465A
:101030001B2280230AF0C8FCA5E70C23009321465D
:1010400008480F2280230AF0BFFC06480849446084
:101050001D2383600AF0BCFE95E700BF0CC9FF1F8B
:10106000E8C0FF1FF8C8FF1F146D0100246D0100C8
:10107000386D0100606D01004C6D010008B50BF08A
:10108000C1FC03480349044ABDE8084010F04CBDC8
:101090002CA1FF1F1D0D0000E890FF1F024B1868D8
:1010A00000EB400040007047D4BCFF1F704700BFFA
:1010B00070B40F4A0F49002301260225042403209F
:1010C000137682F8216082F82250546113605360D5
:1010D0009360D3605376D36182F8203082F8230086
:1010E00088600B704B60CB600B6170BC704700BFB9
:1010F000C8A4FF1F38C0FF1F0020704700207047A2
:10110000002070470C4BD9691A78187E0131904243
:10111000D96104D009480A49805C1A760870596878
:101120005A7E05480B1C18BF01239A4202D0054A7B
:1011300043761370704700BFC8A4FF1FA872010058
:101140008C9FFF1F7C9FFF1F704700BF2DE9F00F92
:101150004FF0000C2F4CDFF8C8902F4D83466646A9
:101160000BEB0C0800222D4BA4F8386141461046C9
:101170001F7D062F0FD8DFE807F038232304042E45
:101180002E0018B101F8010BA4F83861A75821F816
:10119000027BB4F838011833AB4202F10402E7D104
:1011A00018B101F8010BA4F8386104F57E74C8EB9E
:1011B00001014C458C44D3D16046BDE8F00F704727
:1011C00018B101F8010BA4F83861A75801F8017BA8
:1011D000B4F83801DFE718B101F8010BA4F8386161
:1011E000A75841F8047B0020D5E7A75848B107F07D
:1011F0000F0747EA000A01F801AB0020A4F83861A4
:10120000C9E74FEA071A5FFA8AFA4AF47040A4F86D
:101210003801C0E700A5FF1F2C7E0100DC7601002D
:10122000D0BCFF1F704700BF704700BF704700BFB2
:1012300010B504460CF058FE204610BD4388082B1C
:1012400000D07047064B0749DA680A4492F820201C
:10125000012AF6D81A7882F001021A70704700BF8E
:1012600038C0FF1FC8A4FF1F012870B424D1154B3C
:101270001B78302B24D0602B20D0183B5A425A4187
:10128000114B11481968114E914218BF1A60104A4B
:10129000596812788A4218BF426001250022022450
:1012A00003200421327083F8202083F8215083F832
:1012B000224083F82300596170BC70470322DFE7A6
:1012C0000222DDE78C9FFF1FC8A4FF1F38C0FF1F4D
:1012D0007C9FFF1F4388202B30B401D030BC704767
:1012E000224B1A78C2B1224ADB688088134493F8F3
:1012F0002030032B52F82310F0D81E4C03EB43058B
:1013000004EBC50501FA80F06C68A04221DAA14225
:10131000E4D042F82340E1E7B0F90420D8685C68E3
:101320001044A04213DB99688842A8BF0846196997
:10133000D860002A11440D4D10DB012904DDA96895
:101340008842ACBF03210221196130BC704720469E
:10135000EDE7AC68A042B8BF0446D8E70129F3DC4A
:101360008442ACBF00210121EEE700BF38C0FF1F5F
:10137000C8A4FF1F5C7601002DE9F04F444D454F96
:1013800087B0284600210C2280230AF089FB424BBB
:101390004249D3F80C901C691B7804930022022365
:1013A0002846C4EB09046A60AB600AF011FDE01C3A
:1013B00003904FF0110BCDF8149005993848DDF8E3
:1013C00010A0C5F808B03B190A1B93F8203056420C
:1013D000564103EB4302991E00EBC209002E57F859
:1013E00023802B4808BF4FF0000AABF1020201290D
:1013F0004FF002030292D9F80C106B600BD80AF080
:10140000E7FCDEB903990134A1420BF10C0BD4DAED
:1014100007B0BDE8F08F0AF0DBFCD9F81030C5F852
:1014200008B07E21696043B353F8281018480AF0C9
:10143000E3FCBAF1000F0AD1002EE3D00B23009396
:10144000029A1348002180230AF0BEFADAE7D9F89D
:101450000830D9F80420984517D0124B581D9045F4
:1014600008BF034600930A485B210BF1FF320523B6
:101470000AF0B8FB002EC5D0E0E7054841460AF067
:101480006FFCBAF1000FD7D0E1E7074BEAE700BFE6
:10149000F8C8FF1FC8A4FF1F38C0FF1F2C7E010023
:1014A0005C760100A85C0100B25C0100F0B4032886
:1014B0001BD8DFE800F0381C38382C242B252D20D1
:1014C0001471D5705071941DE01A0022A0F273358A
:1014D00002270426A0F2723027706670CD60C3F830
:1014E00070030A718A600A614A61F0BC70476749FB
:1014F000674A888EC886674B674C00201071D0629F
:101500000121B3F95C2183F87711012AD4BF0022AD
:10151000012283F8870183F83D2103F57E73A342FE
:10152000EFD1F0BC70475A495A4C0A68C2EBC2105E
:10153000C000231893F88751002DD6D0D2B20025D1
:10154000032A83F8875100F08C80205C83F8745361
:1015500003F2753207240525A042157054704DD052
:10156000062401389470D41C0528ADD801A555F87F
:1015700020F000BFB5150000CF150000BF1500001A
:10158000A11500008D150000BB1400002320D070B1
:10159000D3F88C00032871D8DFE800F02C28241D34
:1015A0000F261025112412205471D67015719071D8
:1015B000D41D89E719261A2509240A20F4E70D24E9
:1015C0000C250E201471D5705071941D7CE70B20F2
:1015D000D070141D78E7212010710532282010707A
:1015E000541C71E7202010710532F7E71F2010719D
:1015F0000532F3E71E2010710532EFE714201524A1
:101600009470D07093F85400032831D9141D042825
:101610003FF65AAFDFE800F02119110D03002A222E
:10162000222020706270D3F8A820052A28D0023426
:101630004AE71B222270013446E72246192002F8AD
:10164000020B1A20607014463EE72246172002F86B
:10165000020B18206070144636E7162222700134FF
:1016600032E7012283F87423187903F2753271E7A7
:101670001320107193F85400541DC8E70432ADE7ED
:101680001D201C22A070E27004341DE72CA1FF1F56
:101690002CBFFF1F00A5FF1FD0BCFF1FFFFFFFFFD8
:1016A0002DE9F04F93B0FFF7FBFAFFF711FBCE489F
:1016B000DFF858B3CD4DCE4FCE4ECF4B0363002154
:1016C0004FF0FF30C5E90001C5E90201C5E9040199
:1016D000C5E90601C7E90001C6E900010BF55E7125
:1016E000C1480E9100230BF2793803600E980890E0
:1016F0006FF4F47540462844CDF83C80CDF81C804A
:101700000D90DFF8E482BD4A88F8043078304D212E
:101710000A9020381F46C8F80830C8F81030C8F8BA
:101720001430C8F82C30A8F83C30C8F84030C8F85D
:10173000443088F83E30C8F80C10C8F83820C8F893
:10174000342006901D464C380BF55F710BF27B324E
:101750000BF5FC730BF5F878A94CDFF8CC920990E7
:10176000119110920C93CDF82C805E46BA46A54993
:1017700000235144E25841F8042F1833B3F5EA6FBF
:10178000F8D1A14AA0485244931C00F80A50557061
:1017900003F8015B03F8015B03F8015B03F8015BED
:1017A00003F8015B03F8015B03F8015B03F8015BDD
:1017B00003F8015B1D70B36803B1B560934F86F801
:1017C0003A510120574442F21071FF2240F6FF7354
:1017D00086F83E0186F86201C6F85411A6F88A21FF
:1017E00086F83D5186F83B5186F83C51A6F8705179
:1017F000A6F87251C6F84451C6F84851C6F84C5183
:10180000C6F85051C6F85851A6F85E51A6F85C517A
:1018100086F8425186F8435186F8785186F8875108
:10182000A6F88C313B7D86F8743186F8763186F8DF
:101830007751BB69764986F875319BB20A88A6F85C
:10184000885199024FF0FF33C6F86431C6F8683109
:10185000C6F86C11A6F84021D7F88C00C3B2022B51
:1018600086F8793100F00182032B00F0FB81012B17
:1018700000F0F681B36F0D9A6649A6F87A31CBEB8A
:10188000020888446FF4C77E08EB0E01A8F5C87CF7
:10189000A8F5C672D7F8883005924FF0100E802256
:1018A000A6F87C3186F87E0186F87F5186F884514F
:1018B00086F8855158488CF800E00A70059A4FF078
:1018C000FF33136050440291CDF80CC0FFF716F8B7
:1018D000099A5248CBEB020303446FF4CD7C03EB2F
:1018E0000C00A3F5CE726FF4CC7115700570A3F5E2
:1018F000CB7003EB010E019049488EF80050A3F520
:10190000CC72B0F800E0A2F800E06FF4CA7003EB0C
:10191000000E019801220270A3F5CA70A3F5CD73E1
:101920008EF8005002701A703C4ADDF80CC0029923
:1019300000205244131804304028DD60FAD10A78A0
:101940000598FF2A03680DD0FF2002910493CDF87B
:101950000CC00CF015FB0299049B0A78DDF80CC052
:10196000904201D283F001039CF800202D48012110
:10197000013A01FA02F2A8F5C478D90756BFD2435A
:1019800042EA530302EA5303D8F800209A420A9A23
:1019900008BF83F00103C8F80030CBEB0201DDF88B
:1019A00014800144C8F80030A1F20622DDF830802E
:1019B0000192A0F1200C4FF480320023D444CCE9F2
:1019C0000023A1F5027EC8E90023A1F5017CA1F561
:1019D0000072A1F5FE71059101A1D1E9000125E098
:1019E00098999903000000002CBFFF1F08BFFF1F3C
:1019F000F0A4FF1FB8A2FF1F447E01008CA0FF1FB0
:101A0000DC760100FCA4FF1F64A8FF1F00A5FF1FD8
:101A1000DCBCFF1F90A6FF1FC8A8FF1F9CA6FF1FCE
:101A20006CA0FF1F08A7FF1F409FFF1FDDF82C8041
:101A3000C8E900010198C4490123AEF800300380D1
:101A40004FF6FF7EFF20CCF800E01060059A0B688F
:101A5000C2F800E0DA88B3F800E058889988D9F82D
:101A60000030AEEB132ED9F80430A0EB1320D9F8D8
:101A700008307044A1EB13210144D9F80C00A2EB0B
:101A8000102301EB030840460CF074FA069B5FFA42
:101A900088F2D3E900011204D317994208BF90429B
:101AA00006D0069807F5FC71C0E90023C1E90023C0
:101AB000A64AA74BC7F8948153445244A349C2F89D
:101AC000C4531D725D72C2F858535D6096F8872149
:101AD00051F80A30022A00F09A80012ADBB287F816
:101AE00074537DD0002A40F00582072205219342DD
:101AF00087F8751387F8762300F0BA805A1E0623FC
:101B000087F877330E9B8A4211D8DFE812F03D0147
:101B100038012B010D01F800EB008E4BDDF81C8025
:101B20002122534488F8002028221A7001331A46D3
:101B30000220042102F8020B59700E99DDF844804E
:101B4000854B01F57E7108F57E780E91CDF84480C5
:101B50001099DDF83C8001F57E7108F57E781091D2
:101B6000CDF83C800D99DDF8308001F57E7108F5E7
:101B70007E780D91CDF830800B99DDF8288001F545
:101B80007E7108F57E780B91CDF828800699DDF8F6
:101B9000248001F57E7108F57E7853440691CDF8D6
:101BA00024800899DDF81C80D21A0AF57E7A41F269
:101BB000D07301F57E7108F57E789A45C6F87023DA
:101BC0000891CDF81C8006F57E767FF4D0AD5F4895
:101BD0006249D0F87033013BCB6013B0BDE8F08FA1
:101BE0002E213022072B87F8751387F8762357D0DC
:101BF0002F22013B87F877230E99052B29D8DFE8A0
:101C000013F0FD001A010D01E000D300F0000822DE
:101C10004C2387F874234D2287F8762387F8753391
:101C200087F877330E9A88E7D7F8A830052B0CBFD2
:101C3000402322230B704B1C2A221A70D7F8A820AD
:101C4000052A03F1010104D14721462259709A70F7
:101C5000D91C0A463120032302F8020B4B706CE7B3
:101C6000F36F08E6D6F8843005E6D6F8803002E651
:101C70003B4A152102EB0A0302F80A1014225A709B
:101C800097F85420032A40F2DB800233042A3FF6FF
:101C90004EAFDFE812F029012101190115010901F8
:101CA0002F4B422203EB0A0103F80A2043234B7017
:101CB00097F85430032B00F2C98041238B7097F8BA
:101CC00054300331042BC4D801A252F823F000BFD2
:101CD000A11E0000911E0000811E0000791E000060
:101CE000291C00000899DDF81C802B230B702C2286
:101CF0002D2388F8002087F87A33109B17E7089A7D
:101D000023231370D7F88C30032B00F2F1800FF2ED
:101D1000080858F823F000BF6D1E00005D1E00008B
:101D2000511E00001B1B0000DDF8208007990F22C8
:101D3000102388F800200B701122122387F87B33C0
:101D400087F87A23119BF2E6D49DFF1F00A5FF1FA1
:101D500058A8FF1F7AA8FF1F74A8FF1F2CBFFF1FE2
:101D600077A8FF1F0899DDF81C800C230B700D224B
:101D70000E2388F8002087F87A33109BD7E608995D
:101D80000B230B700F9BD2E60899DDF81C801922FB
:101D90001A230A7088F8003009220A2387F87B3357
:101DA00087F87A23119BC2E6DDF8208007993E234D
:101DB00088F800303F224B230A7087F87A33109955
:101DC00047E70799DDF820803822392388F800207A
:101DD0000B703A224B2387F87A2387F87B331199CB
:101DE00037E7DDF820800799482388F8003049223A
:101DF0004A230A7087F87A3310992AE70799DDF8A1
:101E000020803C223B2388F800200B7032223323B1
:101E100087F87A2387F87B3311991AE7DDF8208059
:101E20000799352388F80030362237230A7087F85F
:101E30007A3310990DE7089A0F993423137008E745
:101E400013229A7097F8542003331FE7023139E7C1
:101E50002D4B0799202253440A7065E62A4BDDF882
:101E60001C801F22534488F800205DE6264B07990A
:101E70001E2253440A7057E63D230B700131E8E6F9
:101E80000B463C2203F8022B3B224A701946E0E63F
:101E900041230B70442245234A708B700331D8E6EE
:101EA0004B230B700131D4E61A46222102F8021BA3
:101EB0002A215970D7F8A81005291ED0134636E6F6
:101EC0001B221A70013332E61A46192102F8021B4E
:101ED0001A21597013462AE61A46172102F8021BE6
:101EE00018215970134622E616221A7001331EE695
:101EF0000F9B19E6054A52441FE61D211C229970CA
:101F0000DA70043313E600BF7AA8FF1F75A8FF1F1D
:101F1000BE4B2DE9F0079E8E06F00406B6B2002EE9
:101F200057D1BB4DDFF8ECA22F68C7EBC7194FEABA
:101F3000C9090AEB090494F88731022B4CD005F14A
:101F40000408B8E80F0005F1180CACE80F00FFB268
:101F5000D8F80020AE6002230121032F2E616E61AC
:101F6000CCF8002084F887311E46297104F55D7293
:101F700045D0022E5AF8091019D00023012E84F8FA
:101F80007433C9B204F2753344D0EEB90720052684
:101F900081421E7058704FD0062001399870D81CAD
:101FA000052963D8DFE801F0ADBAB2A398904C23BD
:101FB00008204D2184F8753384F8773384F874034E
:101FC00084F8761304F55E739B1A5A1EC4F87033B6
:101FD000EA60BDE8F007704705F11808B8E80F009F
:101FE00005F1040CACE80F00FFB2D8F8003084F81B
:101FF0008761032FCCF8003004F55D72B9D1022E51
:102000006168D4D00123012E84F87433C9B204F27C
:102010007533BAD12E26302007291E70587000F073
:10202000D7802F2001399870D81C05293AD8DFE8CD
:1020300001F09F9B93898179142115209870D970A4
:1020400094F85410032939D9181D04290ED8DFE853
:1020500001F0B3ABB7A703002A232221017043701C
:10206000D4F8A830052B00F0F38002300346022696
:1020700003F8026B9B1A04215A1E4170C4F8703396
:10208000EA60A6E7D4F8A830052B0CBF4023222332
:10209000037001302A230370D4F8A830052B00F018
:1020A000DD8001300346312603F8026B9B1A0321C1
:1020B0005A1E4170C4F87033EA608AE7132119711F
:1020C00094F85410581DC0E72C202B262D21187190
:1020D000DE705971981DC9E72321D970D4F88C108E
:1020E000032900F2B380DFE801F057534F480F2770
:1020F0001026112012215871DF701E719971D81DA0
:10210000B4E719271A2609200A21F4E70D200C2626
:102110000E211871DE705971981DA7E70B21D97037
:10212000181DA3E7492048264A211871DE7059710D
:10213000981DB7E73F203E264B211871DE7059717C
:10214000981DAFE7382739263A204B215871DF70A8
:102150001E719971D81DA5E73620352637211871D3
:10216000DE705971981D9DE73421D970181D99E7CB
:102170003C273B2632203321E8E721211971053322
:1021800028211970581C71E7202119710533F7E7D0
:102190001F2119710533F3E71E2119710533EFE78C
:1021A0001B230370013061E70346172103F8021B6C
:1021B00018214170184659E716230370013055E77E
:1021C0000346192103F8021B1A21417018464DE7F6
:1021D000432142209870D97094F8541003292FD9C4
:1021E000181D04293FF65EAF01A353F821F000BF8C
:1021F00039220000292200001922000005220000D7
:10220000852000003D23037001304BE72CA1FF1F08
:102210002CBFFF1F00A5FF1F03463C2103F8021B34
:102220003B21417018463DE7412644214523067075
:1022300041708370033035E74B230370013031E781
:102240004121197194F85410581DCAE7043397E7D7
:102250001D211C238170C370043007E747214623EA
:102260004170837003301DE72DE9F003C04DDFF8A6
:1022700004C32E68C6EBC617FF000CEB070494F8E6
:102280008731012B57D0022B2DD02B69B84A23441C
:1022900093F87433042B04BF00231371012384F8D3
:1022A00087311846F6B2032E15BF002301231CF810
:1022B0000720227984F8743304F55D7104F27533D4
:1022C000002845D10720052682421E70587067D02D
:1022D0000620013A9870D81C052A1ED8DFE802F0C3
:1022E0009AA4A8B0B59205F11809B9E80F0005F154
:1022F0000408A8E80F00D9F80030C8F8003001231E
:1023000084F88731C1E72A23222202704370D4F86F
:10231000A830052B00F01F8102300246022604235C
:1023200002F8026B4370531A5A1EC4F87033EA6005
:10233000BDE8F00370472B692344002093F8743301
:1023400084F887013F3B012B9CBF00232B71A9E739
:102350002E263020072A1E7058703BD02F20013ABD
:102360009870D81C052A14D8DFE802F0A5999D873B
:10237000917FD4F8A830052B0CBF40232223037093
:1023800001302A230370D4F8A830052B00F0E9802F
:10239000013002463126032302F8026B4370C2E784
:1023A000142215209870DA7094F85420032A40F211
:1023B000CA80181D042AB0D801A353F822F000BF28
:1023C0000F250000FF240000EF240000E724000098
:1023D00007230000432242209870DA7094F85420BA
:1023E000032A3CD9181D042AD3D801A353F822F09C
:1023F0002F2500001F2500003725000017250000AD
:10240000732300002C202B262D221871DE705A71A8
:10241000981D82E719271A2609200A225871DF70B1
:102420001E719A71D81D78E70B22DA70181D74E7B7
:102430000D200C260E221871DE705A71981D6CE763
:102440000F27102611201222E8E72322DA70D4F891
:102450008C20032A7DD8DFE802F0423E3A33412245
:102460001A7194F85420581DBDE7492048264A2285
:102470001871DE705A71981D8BE7382739263A207B
:102480004B225871DF701E719A71D81D81E73F2071
:102490003E264B221871DE705A71981D79E734225E
:1024A000DA70181D75E73620352637221871DE7070
:1024B0005A71981D6DE73C273B2632203322E0E716
:1024C00021221A71053328221A70581C25E7202270
:1024D0001A710533F7E71F221A710533F3E71E223D
:1024E0001A710533EFE71B230370013015E703462C
:1024F000192203F8022B1A22427018460DE70346F0
:10250000172203F8022B18224270184605E71623FB
:102510000370013001E73D230370013039E74126A4
:1025200044224523067042708370033031E74B2309
:10253000037001302DE703463C2203F8022B3B22B7
:102540004270184625E713221A7194F85420581D3A
:1025500030E70433B7E71D221C238270C3700430B8
:10256000DBE64722462342708370033011E700BF49
:102570002CBFFF1F00A5FF1F2DE9F003A04CDFF8C3
:102580008CC22668C6EBC617FF000CEB070595F852
:102590008731022B6CD023692B4493F874331E3B94
:1025A0002E2B5ED8DFE803F018181818465D5D5D25
:1025B0005D5D5D5D5D5D5D5D5D5D5D5D5D5D5D5D4B
:1025C0005D5D5D5D5D5D5D5D5D5D5D5D5D5D5D5D3B
:1025D0005D5D5D5D5D434300D5F88C30042B26D0F6
:1025E000884A894952F8230084F83E3001EB4311B0
:1025F000DBB20022022B226484F84820E562A1634A
:10260000616320637E4A00F0E280032B5BD0012BE4
:1026100000F0E38095F890105164022B00F0DA800E
:10262000032B53D0012B00F0DB80AB6FA387BDE8F9
:10263000F0037047734B95F8A4601968724AD5F897
:102640008800E562002301252163A263626323649D
:1026500084F83E3084F848506664A087BDE8F003F3
:102660007047237983F001032371BDE8F0037047BD
:1026700004F11809B9E80F0004F10408A8E80F00F4
:10268000D9F80030C8F80030F6B2002385F8873159
:10269000032E0ABF01231CF807202A7985F874331A
:1026A000072105F2753305208A42187059705CD0F5
:1026B0000621013A9970D91C052A11D8DFE802F0E9
:1026C0003D27352B1D0995F89C305364D5F884308F
:1026D000ACE72C212B202D221971D8705A71991D2D
:1026E0004B1BA3F2733202260420A3F272330E7046
:1026F0004870E260C5F8703399E72322DA70D5F8A4
:102700008C20032A74D8DFE802F02C28241D0B2229
:10271000DA70191DE4E70F261020112112225971D9
:10272000DE7018719A71D91DDAE70D210C200E2286
:102730001971D8705A71991DD2E719261A200921EA
:102740000A22ECE721221A71053328221A70591C3B
:10275000C6E720221A710533F7E71F221A710533E5
:10276000F3E71E221A710533EFE714221521997041
:10277000DA7095F85420032A34D9191D042AAFD8E9
:10278000DFE802F02119110D03002A2322220A702A
:102790004B70D5F8A830052B2CD00231A0E71B23B5
:1027A0000B7001319CE70B46192203F8022B1A2209
:1027B0004A70194694E70B46172203F8022B182299
:1027C0004A7019468CE716230B70013188E795F89B
:1027D00098305364D5F8803028E795F894305364E6
:1027E000EB6F23E713221A7195F85420591DC5E7A2
:1027F0000433AAE71D221C238A70CB7004316FE7D3
:102800002CBFFF1FC85D0100ACA0FF1F00A5FF1F6C
:102810006A4B9B8EDB07F0B449D5694C694D6A4819
:1028200022460023C15842F8041F1833B3F5EA6F5B
:10283000F8D104F57E74AC42F2D16448644D03686B
:10284000C3EBC312D200A918DBB20024032B81F81A
:1028500087412ED0AA5C81F8744301F275330724B6
:102860000525A2421D705C702FD0541E06229A705E
:10287000DA1C052C0DD8DFE804F05C585003463E06
:102880000F261025112412229A71DE701D715C71C1
:10289000DA1D531AA3F2733502270426A3F272330A
:1028A000002417705670C560C1F870330471F0BC15
:1028B000704701230A7981F87433072401F27533D4
:1028C0000525A2421D705C70CFD115241422DA7048
:1028D0009C7091F85440032C03F1040204D8132295
:1028E0001A7191F854405A1D042CD2D8DFE804F034
:1028F000534B57372B002D222B252C245A71DD707A
:102900001C719A1DC5E72322DA70D1F88C20032AA6
:1029100014D8DFE802F034302C280E220C250D24C8
:102920005A71DD701C719A1DB3E70B22DA701A1D03
:10293000AFE719261A2509240A22A5E7043328221D
:102940001A705A1CA5E71346222403F8024B2A24C6
:102950005470D1F8A840052C29D01A4699E71B23BA
:102960001370013295E721221A710533E7E720221F
:102970001A710533E3E71F221A710533DFE71E22C0
:102980001A710533DBE71346172403F8024B1824AA
:1029900054701A467DE716231370013279E7134607
:1029A000192403F8024B1A2454701A4671E71D24A7
:1029B0001C239470D37004326BE700BF2CA1FF1F5F
:1029C000FCA4FF1FCCBCFF1FDC7601002CBFFF1F47
:1029D00000A5FF1F1A4B9B8E5B0710B40AD4194A3F
:1029E000194B1268C2EBC21203EBC20494F88721A0
:1029F000022A02D05DF8044B7047144903209A68FC
:102A0000032A18BF986003F57E738B42F7D11048F4
:102A10001049B4F840215DF8044B82F31002002302
:102A2000C26083F31003036043608360036143610A
:102A30000B604B608B60CB600B614B61704700BFDC
:102A40002CA1FF1F2CBFFF1F00A5FF1FD0BCFF1F25
:102A5000F09FFF1F74A0FF1F6B4A6C4B126810B4ED
:102A6000C2EBC21203EBC20292F88711012925D0F2
:102A7000022902D05DF8044B70476548002499682C
:102A800001B19C6003F57E738342F8D161486249CD
:102A9000B2F840215DF8044B82F310020023C260BB
:102AA00083F31003036043608360036143610B6041
:102AB0004B608B60CB600B614B617047D2F8BC30D0
:102AC00013B10023C2F8BC30D2F8B83013B10023E0
:102AD000C2F8B830D2F8C43013B10023C2F8C43001
:102AE000D2F8C83013B10023C2F8C830D2F8CC30C5
:102AF00013B10023C2F8CC30D2F8D03013B1002388
:102B0000C2F8D030D2F8D43013B10023C2F8D43098
:102B1000D2F8D83013B10023C2F8D830D2F8DC3064
:102B200013B10023C2F8DC30D2F8E03013B1002337
:102B3000C2F8E030D2F8E43013B10023C2F8E43038
:102B4000D2F8E83013B10023C2F8E830D2F8EC3004
:102B500013B10023C2F8EC30D2F8F03013B10023E7
:102B6000C2F8F030D2F8F43013B10023C2F8F430D8
:102B7000D2F8F83013B10023C2F8F830D2F8FC30A4
:102B800013B10023C2F8FC30D2F8043113B1002392
:102B9000C2F80431D2F8083113B10023C2F8083169
:102BA000D2F8103113B10023C2F81031D2F8143129
:102BB00013B10023C2F81431D2F8183113B1002335
:102BC000C2F81831D2F81C3113B10023C2F81C31FD
:102BD000D2F8003113B10023C2F80031D2F8243109
:102BE00013B10023C2F82431D2F8283113B10023E5
:102BF000C2F82831D2F82031002B3FF43BAF00233C
:102C0000C2F8203136E700BF2CBFFF1F00A5FF1F11
:102C1000D0BCFF1FF09FFF1F74A0FF1F10B5032A39
:102C200082B00C4622D0B0F8703163B9B0F872317E
:102C3000012B52D00423E11C00932C48272208F0DA
:102C4000E1FD02B010BDB0F87231022BF0D10A23C1
:102C5000009321462548242208F0D4FD0E23A11E0E
:102C600000932248222208F097FFEAE70379072B16
:102C7000D9D11F4B9B8940F2FE72934212D8DB11CF
:102C8000C3F110039BB223B3102B28BF102359109C
:102C9000C1F129020534611A0093144808F07CFF41
:102CA00002B010BDA3F2FF73C3F3CF136BB1102BAF
:102CB00028BF10235910C1F129020534611A00936D
:102CC0000A4808F09FFD02B010BD194629220123D1
:102CD000F3E7194629220123DCE70A232146009362
:102CE0000248242208F08EFDABE700BFF8C8FF1FA2
:102CF000F09FFF1F10B5134C042120460022FFF760
:102D00008DFF04F57E701A210122FFF787FF04F57D
:102D1000FE6030210222FFF781FF04F6E8304621F1
:102D20000322FFF77BFF04F57E605C210422FFF79E
:102D300075FF04F59E50183072210522BDE8104041
:102D4000FFF76CBF00A5FF1F00B5C2690B4B0C4815
:102D5000D209A3FB02139B09C3EB0313A2EBC3032A
:102D600083B059109A100091C2F11F02C1F13F01C6
:102D700008F048FD03B05DF804FB00BF898888882F
:102D8000F8C8FF1F0148FFF7DFBF00BFC8A4FF1F3F
:102D90002DE9F04129482A4C08F000FD294A2A4B28
:102DA00012781B78E2702949A370A01D802209F0D7
:102DB0008FFD274B611E002503F1860413F8010BDC
:102DC00011F8012F90421CBF03F8012C0125A342EA
:102DD000F4D1204E5DB3B3680133B36006F19804BB
:102DE00006F11003002213F8011B1A480A44A342FB
:102DF00092B2F8D103680746013303F0010394212E
:102E0000D24347F8043B01FB03F3C28103F1800581
:102E1000284609F041FE17F8018B804541462846B7
:102E200005F1010501D009F053FEA742F0D1316848
:102E30000948BDE8F04108F0B1BC00BF487E010080
:102E4000B0BFFF1F8C9FFF1F7C9FFF1FACA0FF1F09
:102E500024A2FF1F14A2FF1F647E01002DE9F04F82
:102E60005448554CDFF87C8183B04FF4F87108F07A
:102E700095FC00250220C4F8F0510BF081F827469C
:102E80002646814605EB090303F001034FF0340C9D
:102E90000CFB03FA08EB0A0BDBF80C309847041D17
:102EA000E30748BF441D042C06EB040317D9DBF8E5
:102EB0001010301D99B1414A934264D9404808F03E
:102EC0006DFC22463D4CDBF804103E484FF4F8738D
:102ED0000093A31B08F062FC394808F05FFC013541
:102EE000022DCFD1D7F8F01137484FF4F87208F01F
:102EF00055FC364B364903F5FA763446002513F86F
:102F0000010B11F8012F90421CBF03F8012C012581
:102F1000A342F4D12F4F7DB3BB680133BB600022C5
:102F200007F1100313F8011B2A4C0A44B34292B272
:102F3000F8D12168284B0131A3FB01035B0803EBA7
:102F40004303CB1A03F101084FEA48284546D24310
:102F5000E281236008F500787E1B731928461C79EE
:102F600009F09AFD84422146284605F1010501D069
:102F700009F0AEFD4545F0D13968184803B0BDE809
:102F8000F04F08F00BBC38F80A3033807480884763
:102F900038F80A20DBF8041000940346104808F0C3
:102FA000FDFB05487388D0F8F0211A441E44C0F890
:102FB000F02194E78C7E010010BDFF1F00BFFF1FB2
:102FC000B87E0100D07E0100547F0100D0A2FF1F17
:102FD0000FBDFF1FC0A2FF1FABAAAAAA707F0100EE
:102FE0002C7F0100E092FF1F2DE9F04F404B41483C
:102FF0001968414B85B0D3F8F02108F0CFFB3E4B68
:10300000D3F8F0211E4616449E426ED959880B44CF
:103010009E4266D3394F384C4FF00009B84623889A
:103020003A889A4223D0B8F834209A4256D00023E6
:103030003348198808F0B2FB638873B11C44A64278
:103040000BD9618863189E42E9D2321B2D4808F0E3
:10305000A5FB294BD3F8F02102E0274BD3F8F02150
:103060002948494605B0BDE8F04F08F097BBDFF8A6
:103070008CA0DAF80C30984700F1040B1BF0010F1C
:1030800001D000F1050B65885D4512D0DAF8041017
:10309000DAF80C300391B4F800A098472B46019061
:1030A0000399CDF800B05246184808F077FB6388C2
:1030B000C4E7DAF8143073B1201D9847ABF104056A
:1030C00003466088DAF804102288019000951048C1
:1030D00008F064FB6588A9442C44B0E7DFF834A00D
:1030E000C7E74FF00009044CAFE74FF00009B7E71E
:1030F000C0A2FF1F987F010010BDFF1FE092FF1FBD
:10310000A8800100C87F01008480010008800100C0
:103110004C8001001493FF1F2DE9F04F2A4C834689
:1031200083B02046D4F80828D4F80C38D31A022BE0
:10313000F8D0D0F8083803F0010303F5007350F815
:1031400023100029EED02148214F0122804608F0AB
:1031500047FB0025AA4602267A19B31C5168C8F815
:1031600008300A22C8F804201848DBF80C9008F050
:103170002FFE184B9A887B5B9A4205F1340519D0D3
:10318000CA450AF1010A07D10B2300930F48022117
:1031900032467E2308F018FC0C361A2EDCD10B4880
:1031A00008F02CFBD4F808380133C4F8083803B011
:1031B000BDE8F08F0421084A00920B460348721CB8
:1031C00008F010FDDCE700BFE8C0FF1FF8C8FF1FD4
:1031D000E092FF1FB0BFFF1F9C5C010070B51B4B4E
:1031E00082B006461C46D3F80818D3F80C28174DB1
:1031F0008A1A022AF7D0D4F8082802F0010202F550
:10320000007254F822100029EDD00122104808F075
:10321000E7FA104B0E48A3FB06239B09C3EB0313ED
:10322000A6EBC303DBB259109A100091C2F11F0242
:10323000C1F13F0108F0E6FA054808F0DFFAD5F8D9
:1032400008380133C5F8083802B070BDE8C0FF1F68
:10325000F8C8FF1F898888882DE9F04F9E4A9F4D46
:103260001368DFF894829A6983468BB0BBF83410F8
:10327000ABF8361000209047A888B8F8004000212D
:10328000012284428DF814100691079200F01E81ED
:10329000B8F83410814200F01A8102210026904FC4
:1032A000DFF8409208920991B246D9F800300293B3
:1032B000029ADBF8E4308B48D31A46F2A712934205
:1032C0002DD90022CBF8E020CBF8DC200168039157
:1032D0000399854CCBF8E4100120227009F0A8FD79
:1032E000DFF8F4E1DEF800002B7897F84C107C4A08
:1032F000994203D0002182F84C30516597F83C1078
:10330000774A994203D0002182F83C3051648369A6
:1033100001209847012323700BB0BDE8F08F0024F3
:10332000DBF8DC20DBF8E0309A4243D0DBF8E060E9
:10333000BBF836E006F00F000BF15C0101EBC002B8
:103340000136538811F830109288CBF8E06013EA08
:103350000E0F59D19BF8380000285DD103295FD0AA
:10336000082B77D0042B7CD0012BD9D12E785F4B42
:103370005F496048012E18BF194608F00FFA97F808
:103380004C20574B86F00106B24203D0002283F84E
:103390004C605A6597F83C20514BB24203D0002252
:1033A00083F83C605A64DBF8DC20DBF8E0302E70F8
:1033B0009A42BBD105A8FFF7AFFE002C3FF475AFD2
:1033C00056464FF0000ACBF8E0A0CBF8DCA0D9F8C5
:1033D00000200392039A444CCBF8E420012084F8A7
:1033E00000A009F025FD089A3B493E484FF0340EF5
:1033F0000EFB02F208EB020338F802200B60AA80F1
:10340000002E3FD118466FE79BF838202EEA0303C1
:10341000ABF83630002A83D000238BF838307FE7B2
:10342000202B9DD1089B069912B213448B421CDBC2
:1034300007988342B8BF1846099B0890002A134496
:1034400019DB022B04DD079B9842ACBF0423032346
:10345000099365E78B1ED3F1000A5AEB030A012496
:103460005EE71F48FDF770F95AE7099B0846002AF6
:1034700008901344E5DA012BEADC8142ACBF00235B
:103480000123E5E701900091FFF782FCFFF7E6FCDE
:1034900001980099026804920498DBF8E420821AEB
:1034A000B2F57A7F15D2CAF30710FFF797FED9F865
:1034B00000300493049ADBF8E430D31AB3F57A7F32
:1034C0000AF1010AEFD3044A10680DE70A461146D3
:1034D000E4E6086808E700BFF090FF1FB0BFFF1FD9
:1034E0002CA1FF1F0CC9FF1FD0BCFF1FD080010003
:1034F000D8800100E4800100E092FF1F2DE9F84F21
:103500003D4C838E3D4FC3864FF00009054626464D
:10351000A246C846D5F8DC20D5F8E0309A4220D043
:10352000D5F8E020E98E02F00F0305EBC30301326A
:10353000B3F85E30C5F8E0200B4295F838204DD145
:10354000002A50D1082B52D0042BD5F8DC20D5F816
:10355000E03008BF4FF0000908BF4FF001089A4261
:10356000DED1D4F80828D4F80C38D31A022BF8D0BE
:10357000D6F8083803F0010303F5007356F823105A
:103580000029EED001221D4808F02AF94FF0020B65
:103590000F231A481A49BB60C7F804B008F018FC9A
:1035A0001B2316481749BB60C7F804B008F010FC8D
:1035B0002723BB6011481449C7F804B008F008FC81
:1035C0000E4808F01BF9DAF808380133CAF8083851
:1035D000B8F1000F9ED04846BDE8F88F21EA0303FA
:1035E000EB86002A96D0002385F8383092E74FF01A
:1035F0000109C8468EE700BFE8C0FF1FF8C8FF1FDB
:10360000008101000C810100208101002DE9F047BB
:10361000434D4448444F454EDFF820918CB0302153
:103620000222802308F0BAF80FCD0FC70FCD0FC7C5
:103630004FF0000E4FF0FF3229683960C6F804E001
:10364000C6F80CE0C6F810E0C6F814E0C6F818E0BA
:10365000C6F81CE0C6F820E07346C6F824E0C6F8B9
:1036600028E0C6F82CE0C6F830E077463260B26059
:10367000E8461C4603F13005C3EB080A204609F072
:103680000BFA0AF804000134AC42F7D1009B4B4519
:1036900038D1BDF80830242B34D1BDF80A000022FF
:1036A00003AB13F8011B0A440CA98B4292B2F8D168
:1036B000D24392B2904225D1B368019A9A4201D284
:1036C00001331FD1EC46BCE80F00194C37600FC422
:1036D000BCE80F000FC49CE80F000137022F84E8FC
:1036E0000F0001D02B46C4E7124D0F4C0FCD0FC475
:1036F0000FCD0FC42B68104823600CB0BDE8F04715
:1037000008F04CB83268094B0132EDD10B4A0C4835
:103710005A6024229A810CB0BDE8F04708F03EB808
:10372000806D010038810100DCBCFF1F78BFFF1FE6
:103730007CBFFF1F88BFFF1F9C810100014C4143DC
:1037400070810100F8B5204808F028F81F4B204987
:1037500003F124063446002513F8010B11F8012F5C
:1037600090421CBF03F8012C0125A342F4D14DB3B4
:10377000184FBB680133BB60002207F1100313F838
:10378000011B14480A44B34292B2F8D103680133D2
:1037900003F001035E001E443601D2433446BF1BD2
:1037A000C281036030363B1920461D7909F074F957
:1037B00085422946204604F1010401D009F088F928
:1037C000B442F0D1F8BD00BFB881010088BFFF1F2F
:1037D000DBBCFF1F78BFFF1F2DE9F0436D4C83B0AA
:1037E00006462546D4F80828D4F80C38D31A022BFC
:1037F000F8D0D5F8083803F0010303F5007355F845
:1038000023100029EED0644D0122284607F0E8FF7E
:1038100077684FF002088023284600210C2208F028
:103820003FF97968C5F804802846C5F8088008F093
:10383000CFFA3B7DC5F804804FF011094345C5F828
:1038400008902846B9686AD0032B79D0012B3ED066
:1038500008F0BEFAFB692BB1B268284653F8221073
:1038600008F0B6FAF96802221D236A60AB6011B154
:10387000494808F0ADFADFF83481DFF834916A2561
:1038800058F8043F1B0F03339B083ED10535742DB8
:10389000F6D13B6940480121352208F0E1FA33783E
:1038A0003D4840F6A23202FB03F302221B0A0092BB
:1038B00000213E2207F0A6FF374807F09FFFD4F80B
:1038C00008380133C4F8083803B0BDE8F08308F0C5
:1038D0007FFAB168C5F808906223284605226B601C
:1038E00008F010FBB3687A6A396A93424ED02B4ACB
:1038F000501F8B420CBF13460346009326485D21A0
:103900001022052308F06EF9ACE709EB830300935E
:10391000214829460222042308F064F9B6E708F09A
:1039200057FA1F4A3B7E11681E4A31F8131052F8AD
:103930002330C5F80890A1EB132128466223CDE778
:1039400008F046FA6223B1686B6042462846C5F823
:10395000089008F029FBB3687A6A396A934217D055
:103960000E4A501F8B420CBF1346034600930A4871
:103970005D211022052308F035F940230021009332
:103980000A460548802308F007F96BE7064BB4E7C1
:10399000054BEBE7E8C0FF1FF8C8FF1FAD5C010057
:1039A000D49DFF1F409FFF1FB25C0100ACA2FF1F10
:1039B000B85C010043688268196A8A4230B402DB4D
:1039C000596A8A4200DD81601A7D032A0CD8DFE83B
:1039D00002F02D02140D9C691E491F4A836821F8CC
:1039E000143083F31003D36030BC7047194A037A54
:1039F0009375184630BC07F0CFBE9969154B174C2C
:103A0000174A856894F900001468164A03EB4101CF
:103A100000234D81834203F101030CBF2188002163
:103A2000062B42F8041FF5D130BC70470B4A0C4BF3
:103A300092F900000B4A1C680023984203F101032D
:103A40000CBF21880021062B42F8041FF5D130BCA1
:103A5000704700BFDCBCFF1FF09FFF1FC45D01006B
:103A600008A0FF1FEC9FFF1F2DE9F04F044685B013
:103A7000AF48DFF8CC92DFF8DCB2DFF8DCA207F069
:103A80008DFE94F83C10AB4A019201220023914232
:103A90004FF48050C9F800300093C9F8043018BFC3
:103AA00063640292039018BF84F83C200023A2496B
:103AB0000D68DBF80020D103C3EB050340F1F4806F
:103AC0009E49D9F800209E4801FB03F32AB19A428F
:103AD00034BF0022C3EB02020260DBF80020920335
:103AE00040F1DD80D9F8042095492AB19A4234BFCB
:103AF0000023C3EB02034B60002604F15C080B2794
:103B0000D4F8DC20D4F8E0309A4267D0D4F8E01042
:103B1000E08E01F00F0208EBC20201315388928857
:103B2000C4F8E010034249D194F8381000294CD170
:103B3000013B1F2BE4D801A151F823F0833C000086
:103B4000833C0000013B0000713C0000013B000091
:103B5000013B0000013B0000613C0000013B000014
:103B6000013B0000013B0000013B0000013B000065
:103B7000013B0000013B0000473C0000013B00000E
:103B8000013B0000013B0000013B0000013B000045
:103B9000013B0000013B0000013B0000013B000035
:103BA000013B0000013B0000013B0000013B000025
:103BB000013B0000013B00003D3C000094F8382030
:103BC00020EA0303E386002A9AD00023D4F8DC20FD
:103BD00084F83830D4F8E0309A4297D19DF800301C
:103BE000019A03EB8308534B03EBC807BA421BD07F
:103BF00013F838205348796807F0D0FD019B1B78F3
:103C000013B9029B002B6FD13B7D022B66D0032B97
:103C100060D0012B59D0474911F838300B2B14BF15
:103C200000230123029301976846FFF7C3FE68460D
:103C3000FFF7D2FD002E6BD12B4638E7029B03FA2B
:103C400082F202925CE79DF80030002B3FF458AFFF
:103C5000134413F0FF0331D101238DF800304FE7F7
:103C60009DF800300A2B27D801338DF8003047E744
:103C70009DF80030012B7FF643AF013B8DF80030FB
:103C80003EE7DAF81830591C01F0030123F0030372
:103C90000B432046CAF81830FDF796F830E74FF08E
:103CA000FF33C9F8043027E724494FF0FF3201FB06
:103CB00003F3C9F8002010E7012621E70B2B94BF7E
:103CC0008DF800308DF800701AE7BB693AF81330B0
:103CD0000293A8E79AF816300293A4E7BB690AEBAF
:103CE00043035B8902939EE7174807F057FDDFF80F
:103CF0006CC0DFF864E0BCE80F00AEE80F00BCE881
:103D00000F00AEE80F00DCF80030CEF800307BE7A3
:103D1000029B2BB90D4807F041FD05B0BDE8F08FBF
:103D20000B4807F03BFDFFF70DFD05B0BDE8F08F38
:103D3000D48101000091FF1FD8BCFF1FF47E1D003D
:103D4000B0A2FF1FF0810100008201003482010057
:103D50001C82010050F00F40DCBCFF1F806D010091
:103D60004FF6FF738B40DB439BB2002A10B403EA8B
:103D7000000010DB92FBF1F401FB1422891A40FAD7
:103D800001F100FA02F20A4392B262EA030080B241
:103D90005DF8044B7047524292FBF1F401FB142290
:103DA000891A00FA01F1104141EA000292B262EA76
:103DB000030080B25DF8044B704700BFF8B590F87F
:103DC00000310646002B70D0654866490068013B0B
:103DD000DBB230F8137051F82330A7EB13277F378D
:103DE000C7F30F27002A5ED1B6F98A313AB293425F
:103DF00056D096F8A450B6F888002946FFF7B0FFD1
:103E0000A6F87C01002D00F0A780574B06F5D27272
:103E100003EB450433F9021F42F8041FA342F9D112
:103E200006F5D47C00234FF6FF7140FA03F2D20767
:103E300058BF4CF823100133AB42F6D1ACF104016A
:103E400000206B1E984219DA05F18043023B0CEB0F
:103E5000830304E0BCBF5C609A608B420ED05C6858
:103E600053F804299442F5D105F18042013A8B427E
:103E70005CF822209A6005F1FF35F0D101308542CF
:103E800001F10401DDDC05F18043013B4FF6FF72D7
:103E90005CF82330934208BF05F1FF3586F89E5148
:103EA000A6F88A71F8BD3AB2A3E790F8A400D6F854
:103EB0008850A6F87C1100284BD02B4B06F5D27207
:103EC00003EB400433F9021F42F8041FA342F9D167
:103ED000A9B2002306F5D4754FF6FF7441FA03F238
:103EE000D70758BF45F8234001338342F6D12C1F32
:103EF0000027431EBB4219DD00F18043023B05EB66
:103F0000830304E0BCBF59609A60A3420ED0596895
:103F100053F804299142F5D100F18042013AA342BD
:103F200055F822209A6000F1FF30F0D10137874226
:103F300004F10404DDDB00F18043013B4FF6FF7226
:103F400055F82330934208BF00F1FF3086F89E01F8
:103F5000F8BD06F5D475EEE706F5D47C93E700BF0F
:103F6000D49DFF1F409FFF1FAAA0FF1F2DE9F04F08
:103F700000224B1E8BB0044680F87821062B00F2FD
:103F80007981DFE813F05500EE0000013D014501A5
:103F90000700B70190F82031D0F8AC107BB1B34ADC
:103FA000B3481268013BDBB232F8132050F82330DB
:103FB000A2EB1323083301EB231181F3080194F8DA
:103FC0002431D4F8B0207BB1A848A94D0068013B4A
:103FD000DBB230F8130055F82330A0EB1323403345
:103FE00002EBE31282F3050294F82801D4F8B4300E
:103FF000002800F0AC819D4D9D4E2D680138C0B267
:1040000035F8105056F82000A5EB1020803013EB47
:10401000202300F124850F2B40F399810F23D4F83E
:104020006801C4F80C12C4F81022C4F814029AE112
:1040300090F8F020436E816E002A40F08482DBB25B
:104040001E465F1E94F8EC20002A40F05D82CAB242
:10405000D2B2FF2A84F8912184F89031D4F8945197
:1040600008D0FF2009F08CFF94F89131984294F821
:10407000903101D285F001055A1E01219140EA07D5
:1040800058BFC943D4F898214CBF41EA550101EA11
:1040900055018A424FF0FF3208BF81F0010102FA58
:1040A00003F321EA030294F8C850C4F8981112F0FF
:1040B000010C40F6FF70C4F8941108BF002094F87A
:1040C000241094F8283095B1DFF8A081DFF8A09192
:1040D000D8F80080013DEDB238F8158059F8255028
:1040E000A8EB1525403501EBD51101F0FF0194F83F
:1040F000CC5095B1DFF87481DFF87491D8F8008066
:10410000013DEDB238F8158059F82550A8EB15257A
:10411000403503EBD51303F0FF0349B2002940F308
:10412000D88535B2A942A8BF29465BB2002B40F31F
:10413000CD8536B2B342A8BF334622FA01F122FA46
:1041400003F301F0010181EA0C0103F001034B408C
:1041500003FA07F747EA5202C4F894210BB0BDE80E
:10416000F08F90F8D030C46A002B40F08981E4B21F
:104170001F2009F005FF23B200B283423BDB002081
:104180000BB0BDE8F08F90F8D430026B456B806BBC
:10419000002B40F0A081D3B29AB294F8D810002935
:1041A00040F08881E9B294F8DC50002D40F0EA81BB
:1041B000C5B209B2002940F3858510B28142B8BF6B
:1041C000084606462DB2002DC0F2798511B28D4207
:1041D000B8BF2946D4F858219A4228BF002211447A
:1041E00006FB01F1B1FBF3F503FB15131BB298427B
:1041F000C4F85821C3DD40F6FF700BB0BDE8F08F66
:10420000012380F8783140F6FF700BB0BDE8F08FE5
:1042100090F8F830B0F88C80ABB1144A14491268A9
:10422000013BDBB232F8132051F82330A2EB132309
:1042300003F580735B1203FA88F80FFA88F888F3A5
:1042400002081FFA88F894F8A0600A2E00F255853B
:10425000DFE816F06C02480248024802F301F3015D
:10426000F301740274027402740200BFD49DFF1F34
:10427000409FFF1F072940F6FF7081D1BD4A94F887
:104280000C11128894F8503081B1BB4DBB4E2D6893
:104290000139C9B235F8115056F82110A5EB11219A
:1042A00001F5807103EB512303F0FF035BB203FBC5
:1042B000020080B283B219B2B1F57A6F40F3B486CE
:1042C0009B1A9BB219B2B1F57A6FF9DCAC4805883C
:1042D000A94209DA1FFA83F890441FFA88F81FFAF6
:1042E00088F319B2A942F7DB98B2A4F88C310BB06D
:1042F000BDE8F08F90F80821C56C90F85430AAB151
:104300009D499E480968013AD2B231F8121050F81E
:104310002220A1EB122202F5807203EB52235BB242
:10432000042BA8BF042323EAE373DBB294F804212F
:10433000002A40F03881EDB25BB2042B00F2858692
:10434000DFE813F05703EE0296023D022802DBB2CB
:10435000D4F86801C4F80C12102BC4F81022C4F869
:10436000140288BF1023D4F85821A4F80832002A78
:104370005ED0B4F80AA2D4F84C710FFA8AF3002B7D
:1043800040F35E864FF0000804F50271C1464646D0
:104390004346254600914FF0010C10E0D5F8182255
:1043A00097422AD985F82832B4F80AA24FF00108BA
:1043B00001360FFA8AF2964205F1140526DA95F8CD
:1043C000200242B2002A2EDD95F82822002AE5D1EB
:1043D000D5F81C229742EBD95FFA86FB0BEB8B02D8
:1043E0009200DDF800A010320138924485F82002D6
:1043F0009AF90800002840F0EE80B4F80AA20136CD
:104400000FFA8AF2964205F11405D8DBC9EB0A03CC
:104410009BB21AB2002AA4F80A320CDDB8F1000FE0
:1044200042D14046ACE609F101095FFA89F9BFE7DC
:10443000A4F80A229046B4F80832A4F80A321BB253
:10444000002BEBDD04F50A7500260127D4F81002D5
:10445000013009F095FD0136013005F8080C45F8EA
:10446000046C2F70D4F81402800009F089FD45F81F
:10447000100CB4F90A329E4205F11405E6DBCDE7D3
:104480003D4A3E491268013BDBB232F8132051F835
:104490002330A2EB13234033DB1153FA84F424B20C
:1044A00084F30504A4B263E60023C4F84C3140F65B
:1044B000FF7065E6304E314F36680139C9B236F8C3
:1044C000116057F82110A6EB11212031891151FA02
:1044D00085F189B267E62849284E0968013BDBB2BD
:1044E00031F8131056F82330A1EB132320339B111E
:1044F00053FA82F31BB2002B40F3AD82202BA8BFEE
:1045000020239AB213B248E61B481C4D0068013ABA
:10451000D2B230F8120055F82220A0EB1222083255
:10452000121152FA81F292B211B2002940F38A823A
:10453000FF297FF78DADFF2284F8903184F8912117
:10454000D4F8945196E50C480C4D0068013AD2B26B
:1045500030F8120055F82220A0EB122220329211DE
:1045600052FA83F31BB2032B5FDC04231E4603279E
:1045700068E500BF6CA0FF1FD49DFF1F409FFF1F79
:10458000DCBCFF1FB74EB84F3668013DEDB236F8C0
:10459000156057F82550A6EB15252035AD1155FAB5
:1045A00080F085B205E6AF49AF480968013AD2B25A
:1045B00031F8121050F82220A1EB12220832121109
:1045C00052FA85F212B2002A40F33A82FF2AA8BFBB
:1045D000FF2295B2B0E6DAF80C004000CAF80C00F1
:1045E0000293CDF80CC0049209F0CAFCD4F814125E
:1045F000049A0591584401FB00F000998008885006
:10460000D4F80C0209F0BCFC059ADDF80CC08AF85D
:1046100010C002FB00F00209CAF8042095F8282215
:10462000029B002A3FF4E9AEB8E61F2BA8BF1F2368
:104630009EB237B2013FF3B204E594F98431002B06
:1046400040F0608394F87E51D4F858716BB2032B1C
:10465000C2BF043DEDB284F87E51EDB2022D84F864
:10466000795100F04783032D00F04183012D00F0C4
:104670003383A06F94F8FC3080B2D3B1794A7A4981
:104680001268013BDBB232F8132051F82330A2EB61
:10469000132380331A120CD0022D00F0C683032D91
:1046A00000F0C083012D00F0BA8394F89010FFF75A
:1046B00057FB022DA4F87A0100F01683032D00F0B9
:1046C0001083012D00F00A8394F89030BB4298BF0C
:1046D000002740FA07F098BFC4F85871C4073FF5A7
:1046E0008AAD4CE594F87E51D4F85871022D00F053
:1046F000C183032D00F0BB83012D00F0B58394F836
:1047000090309F42AAD3D4F880310136013393FB15
:10471000F6F506FB15354544EDB2002784F87E51C9
:10472000C4F88031EDB2C4F8587197E75FFA88F5A4
:1047300084F87E51D4F85871EDB28FE75FFA88F3B0
:10474000022B00F09D83032B00F09783012B00F0D8
:104750009A8394F8905094F97F31AB4240F0EF8205
:1047600004F572773F4B404A196884F87F51F31F74
:10477000DBB284F87E8131F8131052F823303846CA
:10478000A1EB1321FCF7E6F894F87E51C4F8580128
:10479000074663E7D4F8583194F9A82094F8A400A8
:1047A000D3F1010338BF0023052A00F24E84DFE86D
:1047B00012F03E02240267020502F4015901A446E8
:1047C000FCE97A23002B08BFB2F5F60F00F05E83F8
:1047D0004FF4F602002304F5FC71CCE90023C1E993
:1047E0000023224A002394F8F40094F86C1078B166
:1047F0001C4E1D4F36680138C0B236F8106057F8AD
:104800002000A6EB1020083001EB201181F30801F5
:1048100001F540710804C71700FB03F302FB0733DF
:104820000646A0FB02011944020E42EA01222DB203
:104830000B16C2F30B00C5EB054104F5F875C5E98D
:104840000067090AA0F50060CCE90623CCE904233F
:1048500031FB00F31BB203F30F03B4F84001C01A9D
:1048600080B20BE5D49DFF1F409FFF1F00E73F0074
:1048700094F8F030626EA16E002B40F08D82D2B2BF
:10488000174694F8EC30002B40F06782CBB2DBB2D5
:10489000FF2B84F8913184F89021D4F8946108D0EA
:1048A000FF2009F06DFB94F8913194F89021984223
:1048B00001D286F001060121531E01FA03F3F1072C
:1048C00058BFDB43D4F898014CBF43EA560303EAD0
:1048D000560398424FF0FF3108BF83F0010301FAFD
:1048E00002F239B223EA02020B29C4F89831C4F863
:1048F0009431C2F30B0304DCC1F10C018B40C3F310
:104900000B032DB2C5EB05452A0AA3F5006332FB64
:1049100003F303F30F03B4F84001C01A80B2ADE40F
:1049200094F81431266EE76D002B40F06382F6B2E6
:1049300094F81031002B40F04782FFB2C94ACA4BAD
:10494000126802F1010E0EF0070E0EF1180103EBD2
:1049500041010DF11602CEF1070331F8020B22F8E6
:10496000020F013B581CF8D1CEF1080106AA02EB58
:1049700041010EF1FF33BEF1000F07D0BB4A32F800
:10498000020F21F8020B013B581CF8D1F2B2531E62
:10499000DBB25AB107A901EB430000220DF11A0363
:1049A00033F8021C023383420A44F9D136B23FB2D3
:1049B000C7EB0747B2FBF6F23B0A16B233FB06F62B
:1049C00036B206F30F0640F6FF7009F0D9FA2DB2A1
:1049D000A0F50060C5EB054502B22B0A33FB02F3DC
:1049E0001BB203F30F03B4F840011E44801B80B2D6
:1049F00044E494F85830002B00F0FA819C4B93E883
:104A000081005E6999681A6907F00103DB0000F014
:104A1000010043EA001006F00103034301F0010125
:104A200043EA810302F0010243EA42022DB2C5EBE0
:104A30000545D2012B0AA2F5F06233FB02F309E728
:104A4000012579E4012284F8903184F89121D4F889
:104A50009451FFF706BB01231A46FFF79EBB0023C4
:104A6000FFF7DDBA23B1002384F89D3184F89C312F
:104A700094F8182194F87030002A00F058827D498B
:104A80007D480968013AD2B231F8121050F822205C
:104A9000A1EB122202F5807213EB622340F14782F0
:104AA000012394F81C2184F8A43194F87430002A6E
:104AB00000F01B826F4970480968013AD2B231F8A0
:104AC000121050F82220A1EB122202F5807213EB93
:104AD000622340F10A8294F8A3311BB10023012222
:104AE00084F8A22194F8002184F8A331002A40F030
:104AF0003582D4F88830B4F87C219A4205D0194622
:104B000089B220460022FFF759F994F89E51002DF2
:104B100000F02D82012D00F06E8294F9A3C1BCF14A
:104B2000030F00F0968294F8A46194F89F3194F8F2
:104B3000A22194F89D11771E05F1FF39A81EFFB23E
:104B400076B25FFA89F9C0B24FF0010849B2A942C2
:104B500080F26E810029C0F26B81D1B25BB29E42BD
:104B600040F37681002BC0F2738194F89D2194F874
:104B70009C01B4F8A06104EB82050A44D5F8A85161
:104B800084F89D2116FB0353421C84F89C2198B2A3
:104B90000023C4F85831FFF771BB4FF6FF72A4F839
:104BA0007C21002B00F01B8200231846334AC4F8F6
:104BB000580132F8130080B2FFF760BB94F862210D
:104BC0004FF6FF71A4F87C11002A00F0B681B4F80A
:104BD0006021013292B291B2A4F86011002B00F072
:104BE000EB8100231A46A4F860312449C4F85831F7
:104BF00031F8120080B2FFF741BBB4F86021013AEE
:104C000092B211B20029C0F2AC81002B40F0A98110
:104C1000A4F86021194BC4F85811D2B233F812002D
:104C20004FF6FF7380B2A4F87C31FFF727BBB4F8CE
:104C30006011013189B28DB22AB2824280F2728152
:104C4000002B40F06F81A4F86051CBB20B49C4F83F
:104C5000582131F813004FF6FF7380B2A4F87C316D
:104C6000FFF70CBB70A0FF1F0CA0FF1F3AA0FF1F97
:104C700074A0FF1FD49DFF1F409FFF1FACA0FF1F0C
:104C800094F862214FF6FF71A4F87C11B4F860111A
:104C9000002A00F06F81013189B28AB2A4F8602144
:104CA000002B00F0768100221346A4F86021BD4954
:104CB000C4F8582131F8130080B2FFF7DFBA0021A1
:104CC000FFF788BA01263046FFF77CBA0123FFF7C9
:104CD00034BA0121FFF729BAE06FCBE494F894309D
:104CE000F4E494F89C30F1E494F89830EEE4D4F8CD
:104CF0008400BFE4D4F88000BCE4D4F8587194F880
:104D00007E51ABE494F9863113B1002384F88631E7
:104D1000D4F88031F21ED2B20133013293FBF2F1AA
:104D200002FB113208EB02050027EDB2C4F8803116
:104D300084F87E51C4F8587184F8847186E405EBD8
:104D4000450399495B00CA1804F57277C9560232C7
:104D500038460023FBF7E6FD04E59448944E0068CE
:104D6000013BDBB230F8130056F82330A0EB1323DD
:104D700008331B1153FA81F39BB219B2002940F397
:104D80009C80FF297FF783ADFF23D4F8946184F8DA
:104D9000902184F891318CE58448854E0068013B70
:104DA000DBB230F8130056F82330A0EB1323403366
:104DB000DB1153FA82F31BB2032B7BDD1F2BA8BF41
:104DC0001F239FB2FAB25CE5784A79491268013B29
:104DD000DBB232F8132051F82330A2EB132308334F
:104DE0001B1153FA87F73FB287F30807BFB2A5E557
:104DF000704B04E66D4A6E491268013BDBB232F833
:104E0000132051F82330A2EB132303F580735B12B8
:104E100053FA86F636B286F30306B6B288E594F8FE
:104E2000941044E494F89C1041E494F898103EE403
:104E30004FFA82FAD1B20B44BAF1000FDBB2D4BF01
:104E4000CA464FF0000A84F89F3184F89DA185E698
:104E500052B2002AD4BF3B460023BCF1020F84F8B3
:104E60009F3132D05BB280E694F8943049E494F8F4
:104E70009C3046E494F8983043E494F89C506AE4FB
:104E800094F8985067E494F8945064E4DCE90401E1
:104E90004FF080720023121A63EB010300FB03F34F
:104EA00002FB0133A0FB02011944020E42EA012277
:104EB0000B1698E404221746E3E4012384F89021BA
:104EC00084F89131D4F89461EAE44A42D2B253B200
:104ED000002B84F8A22140F39B8084F89D8101215E
:104EE000002384F89F31DBB230E6032BA8BF0323F5
:104EF000DBB294F9A3115AB291423FF4F3AD032A05
:104F00003FF6F0AD01A151F822F000BFDF4A0000EA
:104F10001D4F0000DF4A0000DF4A0000FF2284F836
:104F2000A221DFE500221346A4F860218EE6052BBE
:104F3000A8BF05230133DBB2B3E5B4F86021013A21
:104F400092B291B2A4F86011002B42D0421E92B2EC
:104F500093B2A4F86031D2B21BB246E6D4F88810FE
:104F6000CEE5421E92B2A4F8602111B252E64FF68D
:104F7000FF700DE6013989B28AB2A4F86021002BD6
:104F800031D0431E9BB29AB2A4F86021DBB212B2B8
:104F90008DE612B201388242A8BF84F86231CBB2EA
:104FA00085E600BFACA0FF1FF0750100D49DFF1F78
:104FB000409FFF1FF09FFF1F09B288420CDC421E7A
:104FC00092B291B284F86231A4F860110BB2D2B2FD
:104FD0000BE609B2002920DB0B46D2B205E608F049
:104FE000CFFFC3B2E2E512B2002AD8DC0120CBB277
:104FF00084F862015BE694F9A431012B7FF48DAD56
:10500000002384F89D3184F89F3194F8A211ACE517
:1050100084F89D013B46014663E701211A46A4F846
:10502000603184F86211E0E5174D2D888D423FF71D
:1050300051A940F6FF73A4F88C310BB0BDE8F08F96
:105040004FF00009C846FFF7E1B940F6FF70FFF7DF
:1050500015B94FF6FF7008F093FF94F9A43194F856
:10506000A21180B2C6B2021296FBF3F003FB1063EA
:1050700092FBF5F0DBB205FB102284F89F3184F837
:105080009D215BB271E500BFDCBCFF1F2DE9F04F35
:1050900004468BB0B0F87001069094F8C400069EE8
:1050A00094F8089009930896002800F03881BC4DC8
:1050B000BC4B2D680138C0B20FFA89F735F8105093
:1050C00053F82030A5EB13231BB2B3F5FA7F00F39E
:1050D0001F81237D5DB20D2D0ADDD4F84801D4F87F
:1050E0006861B0EB860F84BF4FF0FF30C4F86801F1
:1050F00094F8B800A8B1AA4EAA4B36680138C0B2DD
:1051000036F8106053F82030A6EB13233F3305EB3D
:10511000E3135BB21A2BA8BF1A2323EAE373DBB2B3
:105120005DB2032A15BF94F800B094F804C0CDF81E
:105130001CB0CDF81CC0BE1E70427041002840F06B
:10514000FD800126BE400E420CBF4FF0000B4FF019
:10515000010B94F877110491002940F0E380E16994
:1051600094F83CC11FFA81F80FFA88F6B44518BFCD
:105170004FF0010A029618BF84F83AA1B8F1000F67
:1051800000F0E48094F86063059694F8C0C084F859
:105190003C11BCF1000F1ED0DFF804828149D8F821
:1051A00000800CF1FF3C5FFA8CFC38F81C8051F851
:1051B0002C10DDF808C0A8EB112107310CEB2118E9
:1051C0000FFA88F8B8F1630FA8BF4FF0630828EA18
:1051D000E8781FFA88F8D4F868C3D4F86413D4F8D0
:1051E0006C634FEA5C0A49084AEAC67A41EACC7124
:1051F0007608C4F86413C4F868A3C4F86C63BBF100
:10520000000F15D0A189684E16F801C04FEA5C1155
:1052100004EB8106ACEB411C4FF0010AD6F8641395
:105220000AFA0CFC41EA0C01C6F86413D4F86413C2
:1052300001F00106002840F05A81032F0DDC002EFA
:1052400000F0AA81B4F85C115848013950F83700D1
:10525000C4F86401A4F85C11012094F874C15FFAE9
:1052600089F1AC4584F8421105D04FF0010A84F869
:10527000763184F83AA1002E00F08B8094F876A164
:10528000E24500F08680DBB284F8763184F8743130
:105290000D2D40F37281D4F868314FF04040A3FBEC
:1052A000003B4348CDF804B0A5F10D0CD4F86431AF
:1052B00050F83C00A3FB0003C4F868316FF0704065
:1052C000A3FB00C0C4F8540113B90123C4F868312A
:1052D000237C18B2012844DD36B194F94331002B08
:1052E000C4BF0023A4F85C31079B0FFA83FABAF11C
:1052F000050F00F02E81059B002B64D0D4F85833A5
:10530000013B002BC4F8583356DB0BB0BDE8F08FDF
:10531000012F3FF7DEAE09F0010989F001090FFA0C
:1053200089F7D6E694F83C1159B1012194F86063ED
:10533000059684F83D114FF000084CE74FF0000B44
:1053400007E7884694F86013059144E7BCF1000F25
:105350003FF418AFC4F85C8384F86083CDF8148000
:1053600013E794F843C14FFA8CFABAF1000FB3DC9B
:10537000002B40F0BB810F4B1B68C3F30043BCF113
:10538000000F40F0F781002BA6D1012384F84331B0
:10539000A2E700287FF47CAF0190D4F8683193E74E
:1053A000D49DFF1F409FFF1F8C5E010008BFFF1FA1
:1053B000B072010050F00F404FF0000C012384F850
:1053C00060C384F86133D4F84C31D4F848C1013358
:1053D000C4F84C31049B0CF1010CC4F848C1002BFB
:1053E00000F0B48000230D2DA4F85C3140F38180DF
:1053F000002E00F0D780D4F868B1C4F848B100217D
:10540000A4F85E1118F0FF0100F0E48094F8613315
:10541000002B40F0DF80002E40F04581A389002161
:10542000C4F8481143B9D4F854319C45FFF46DAF2A
:105430000199614500F26681022805DD032800F02C
:10544000A081042800F06781D4F85831B4F85E11C7
:1054500001330131C4F85831A4F85E117EB194F8DB
:10546000433159B2002940F399810499FF2384F80C
:105470004331002940F09A810023C4F8583194F850
:105480003D31002B00F06681069B002184F83D1120
:10549000002B45D0BAF1070F4ED0238B002B00F024
:1054A000E48018B2FF2800F0AD81002594F8BC100C
:1054B000002900F09C80BF4EBF4B36680139C9B24D
:1054C00053F8213036F81160A6EB1326083600EBAE
:1054D0002616B3B2002D00F0818018B2002840F3E8
:1054E0005681B0F5E47F80F27F81F6B280E0002043
:1054F000B3E65EB11BB2002B40F32381AF4900231A
:10550000A4F8723183F3100341F82230D4F868B163
:1055100094F8611300297FF475AF069B002BB9D175
:10552000032A09D1BAF1070F06D0DDF820B0B4F88C
:1055300040315B449BB20893A14BDDF820C08CF353
:10554000100143F822100BB0BDE8F08FB4F85C31C5
:1055500049E7D4F8A030032B7FF7CDAE994B94F9EF
:1055600085C11B68C3F34043634503DA4FF0010C68
:1055700084F884C184F88531BDE69348D4F8643159
:1055800050F83500A3FB00034FF0000C9B01C4F85A
:105590006831CDF804C091E694F84211B9427FF425
:1055A00051AE5AE6DFF828B2B4F95E3105930BEB41
:1055B0000503DDF814B013F80D3C9B45A6DCD4F8C8
:1055C00068B1DC45A4D3099B9942A1D018F0FF0132
:1055D0007FF41CAF002384F861331FE71BB2002B5C
:1055E00040F3D580FF2BA8BFFF239BB218B2DEB2D9
:1055F00094F87511D4F848C181426DD0002D40F067
:1056000090801BB24AF6AB2131FB03F101F30F018D
:1056100001EB0011C4F86C1184F87561D4F868319D
:105620005B088B429CBF43F00101C4F86C11D4F8B5
:105630005C3323B1D4F86801CD1885425BD2614553
:105640000FD800230121A4F870310893A4F8721137
:10565000032A7FF471AFB4F87031002B7FF46CAF84
:1056600063E740F6FF760896F2E70D2D14DC032F72
:1056700012D0B8F1000F4BD1524B1B68B9F1000F9B
:1056800040F0BB8083F48033C3F30043002BE8D1A8
:10569000A4F870310893DBE7B8F1000F38D1FF2090
:1056A0000346012502E7ABF1FF0BCDF814B0DFF89C
:1056B00024B15BF82110DDF814B031FB0BF303F3D8
:1056C0000F03002BC4F85C33C4F858337FF7A6AE41
:1056D000012384F8603318E6BCF1000F8ED084F803
:1056E0007561D4F86C11002DA1D197E7354B1B687B
:1056F000C3F3404343E6C31A590841F00101C4F81B
:105700006C119CE794F94331002B7FF495AEFCE5D6
:1057100001200346C9E62B4B1B689B033FF5F5AD03
:1057200092E6D4F86811FF2B4FEA510133D0000202
:1057300030FB01F101F30F01C4F86C1184F87561BD
:1057400075E72249D4F868B1495DA4F85C11C4F842
:1057500048B157E6079903922046FEF707FC02235B
:105760000890A4F87001A4F87231039A002E33D186
:1057700003468AE6002B3FF4AFAD002384F84331A3
:10578000AAE5104B1B6899033FF55EAEBDE5012607
:10579000304633462CE7C4F86C11CFE70498002854
:1057A0003FF46DAE13B1FF2384F84331002384F836
:1057B000773161E6D49DFF1F409FFF1F74A0FF1F3C
:1057C000F09FFF1F50F00F4080750100BC76010074
:1057D000CC760100DC7301000B4B089E86F31001B0
:1057E00043F82210334650E6D4F86811D4F848C183
:1057F0004908C72640F2C71099E783F40033C3F382
:10580000404343E7012551E674A0FF1F2DE9F04F07
:10581000B54BB64CB64DB74A186826682F68126863
:105820008FB000F1010E039201360137D207C3F8A1
:1058300000E026602F6000F15986AF480890D0E95B
:1058400000018B0043EA90738200002170468B4276
:1058500008BF824234BF00236FF00003DBB2DFF8E1
:10586000A8820793039A304696074FF0000100F193
:105870002786089CCDE90401D4E902019F4BA04C86
:10588000D3E900ABD4E900239B4508BF924501F062
:1058900055869C4BDDF820909B4EDFF87CE20AF1A8
:1058A000FF32C4E900AB53F8222000231FFA8AFA22
:1058B000C9E90623BAF5A07FB4BFD4464FF4A07C53
:1058C000BAF1000F14BF6446012492469B46326A27
:1058D000A24218BF346206F57E767645F7D152466D
:1058E0005B463E4600279F4208BF964205D3039C75
:1058F000002344F0080403942B60DDE904678B0067
:1059000043EA907381498200BB4208BFB242079FBD
:10591000097838BF01270797C1B1039CE00715D567
:105920000022134614461A2008EB020102F57E728B
:1059300091F87411814298BFDCB203F1010398BF62
:105940000846062BF0D10D2841F2D986079B6E48F8
:1059500003990022FFF79AFB98F8BC34B8F86895D1
:10596000CDF8109098F80094002B00F09085684ACC
:1059700068491268013BDBB20FFA89F632F813204E
:1059800051F82330A2EB13231BB2B3F5FA7F00F3D7
:10599000778598F80C045C4944B20D2C0ADDD1F8E7
:1059A0004035D1F86025B3EB820F84BF4FF0FF3351
:1059B000C1F8603598F8B034ABB15549554A09681B
:1059C000013BDBB231F8130052F82330A0EB132077
:1059D0003F3004EBE01040B21A28A8BF1A2020EA9A
:1059E000E070C0B244B2B11E4B4298F8F853029531
:1059F0004B41002B40F04F850122039F98F86FE543
:105A00004149B2403A420CBF4FF0000A4FF0010A40
:105A1000BEF1000F40F04885D1F8145491F83425B8
:105A2000AFB20FFA87FC62451CBF4FF0010B81F843
:105A300032B5002F00F0858598F8582798F8B814EB
:105A400088F83455A1B1324F324D3F680139C9B29F
:105A500037F8117055F82110A7EB112107310CEB25
:105A600021173FB2632FA8BF632727EAE777BFB2AA
:105A7000D8F860C7D8F85C17D8F864574FEA5C0BC1
:105A800049084BEAC57B41EACC716D08C8F86457F8
:105A9000C8F85C17C8F860B71B4DBAF1000F17D0F3
:105AA000DFF878C0B5F804141CF801A04FEA5A11C9
:105AB00005EB810CAAEB411A4FF0010BDCF85C17E7
:105AC0000BFA0AFA4AEA0101CCF85C17D5F85C1720
:105AD00001F00105002B40F03A87032E00F33787D1
