:1000000000800020BD01000025570000DD560000E3
:10001000DD560000DD560000DD560000DD56000014
:10002000DD560000DD560000DD56000025570000BB
:1000300025570000DD56000025570000CD56000072
:1000400025570000255700002557000025570000C0
:1000500025570000255700002557000025570000B0
:1000600025570000255700002557000025570000A0
:100070002557000025570000255700002557000090
:100080002557000025570000255700002557000080
:100090002557000025570000255700002557000070
:1000A0002557000025570000255700002557000060
:1000B0002557000025570000255700002557000050
:1000C0002557000025570000255700002557000040
:1000D0002557000025570000255700002557000030
:1000E0002557000025570000255700002557000020
:1000F00025570000E55D000025570000FD64000065
:1001000025570000296A00002557000025570000E8
:1001100025570000255700002557000025570000EF
:1001200025570000255700002557000025570000DF
:1001300025570000255700002557000025570000CF
:1001400025570000255700002557000025570000BF
:10015000255300003D530000555300006D5300002F
:1001600025570000F14600002557000025570000E4
:10017000255700002557000025570000255700008F
:10018000255700002557000025570000255700007F
:10019000255700002557000025570000255700006F
:1001A000255700002557000025570000255700005F
:1001B000255700002557000025570000574B4CF2EB
:1001C000205210B51A804DF628121A8000BF00BFC9
:1001D00005F0ACFA524B4FF010621A60514A9A6027
:1001E000514ADA60A3F53043203B1A6812F480725A
:1001F00004D14E490A604FF4A8521A604C4B1A7849
:10020000110703D51A7842F008021A70494B4A4C7C
:100210004A482A221A704A4A00239918A14203D256
:10022000195899500433F8E7464B474900228B424E
:1002300002D243F8042BFAE74448454900235A58B0
:100240001A500433B3F5DE7FF9D1424B424A802184
:1002500003F8011B9342FBD1404B3C4A1A60404BD0
:100260000A221A70A3F5805324225A70A0221A7011
:100270009A799207FCD59A79D406FCD4394A9379B5
:1002800003F00C03082B374BF9D103221A714622D5
:100290005A719A799006FCD5324A9179314B4906C8
:1002A000FBD5314A4FF08271116009215160202243
:1002B0001A709A7902F00C020C2AFAD12B4B2C4AB4
:1002C0001A602C4B2C4A1A6000225A60072243F80D
:1002D000042C2A4AC3F80C2D62B604F0C7F8134B5D
:1002E0001B68DA0705D5264803F04CFF254B264A44
:1002F0001A60264B1B785B0609D5224C224A2368DC
:10030000934204D11E4803F03DFF0023236006F012
:10031000EBFD05F011FA05F081F9FEE70E2005402E
:1003200030800440823F04000100002B14D00340C1
:1003300002D0074000E007407C92FF1F8895000034
:100340006087FF1F7C92FF1F849BFF1F0082FF1F9F
:100350000000000000E400E05FE400E008ED00E0E1
:1003600000500640004006404480044004800440A1
:10037000C010050014E000E0BFD401000000202000
:100380006D2D8A571CE00340A5C3945A00F0074026
:10039000FFFFFFFFFFFFFFFFFFFFFFFFFFFFFFFF6D
:1003A000FFFFFFFFFFFFFFFFFFFFFFFFFFFFFFFF5D
:1003B000FFFFFFFFFFFFFFFFFFFFFFFFFFFFFFFF4D
:1003C000FFFFFFFFFFFFFFFFFFFFFFFFFFFFFFFF3D
:1003D000FFFFFFFFFFFFFFFFFFFFFFFFFFFFFFFF2D
:1003E000FFFFFFFFFFFFFFFFFFFFFFFFFFFFFFFF1D
:1003F000FFFFFFFFFFFFFFFFFFFFFFFFFFFFFFFF0D
:10040000FFFFFFFFFFFFFFFFFFFFFFFFFEFFFFFFFD
:1004100010B5054C237833B9044B13B10448AFF33E
:1004200000800123237010BD7C92FF1F000000009C
:100430008895000008B5064B1BB106480649AFF386
:1004400000800648036813B1054B03B1984708BD07
:1004500000000000889500008092FF1F7C92FF1F23
:1004600000000000014B01221A807047AC96FF1F6C
:10047000014B01221A707047D692FF1F10B5044637
:100480000B4694F8552094F85410083002F07CFD87
:1004900094F85430184484F85400012010BD00BF73
:1004A000014803F08DB900BF6893FF1F014803F0B6
:1004B00087B900BF7C93FF1F10B5044605F008F80C
:1004C000204610BD0B4B1B88012B0FD00BD3022BEA
:1004D00008D1094B094A1988094B083952F82120DB
:1004E0001A6070477047044B064AF4E7024B064A0D
:1004F000F1E700BFB092FF1FCC87FF1F0883000009
:10050000B892FF1F10790000247E0000F0B4094C5F
:10051000094F0A4ECA00144403460D4603CC3A4420
:100520005863996303CA725D1D709A70D863196429
:10053000F0BC7047F47D0000E0780000EC8700001C
:1005400038B504460D460978FFF7E0FF2B462278C0
:1005500053F8011F04EBC2025B689360516055F8C9
:10056000093F63642B7984F8483038BD0B46027824
:1005700010B403F8012B027800EBC20252F8044FCA
:100580005268C1F801405A6050F8443FC1F8093040
:1005900003794B735DF8044B704700BF70B50D498C
:1005A0000D4D0E4A0E4B0F4C2E88098812881B8861
:1005B000067500F11C05C1820276438304F5FC76C2
:1005C000204629465434FFF7D1FFB44205F10E0509
:1005D000F6D170BDCC87FF1F4893FF1FB092FF1F5D
:1005E000D087FF1F1494FF1FF8B5264A264C274BCF
:1005F00007CA254603C503CB1B882A806382C4F83B
:100600000A00C4F80E102046FFF7C8FF204B611EF9
:10061000002503F1700413F8010B11F8012F90422B
:100620001CBF03F8012C0125A342F4D145B3194F97
:10063000BB680133BB6007F17E00BB1D002233F8AD
:10064000021B144C0A44834292B2F8D1236801334E
:1006500003F00F03DE01D2433546BF1BA2802360A7
:100660007C367B1928461C7903F06AFB84422146BC
:10067000284605F1010501D003F07CFBB542F0D11D
:10068000F8BD00BF5493FF1FD892FF1F9896FF1F1D
:10069000A093FF1F9093FF1F70B505460D4B0E4CA6
:1006A0000E49067D2A7EC08A26801A8008800C4C5E
:1006B000FFF708FF0B4B6A8B1A801C3504F5FC769C
:1006C000204629465434FFF73BFFB44205F10E059E
:1006D000F6D170BDB092FF1F4893FF1FCC87FF1F5C
:1006E0001494FF1FD087FF1F2DE9F04FDFF828A1DA
:1006F0004FF0FF33A1B0CAF80030984610270DF133
:10070000040908F1010606F00F06F501AB46CBEB34
:1007100009047C35584603F013FB04F80B000BF179
:10072000010BAB45F6D1039B314A934220D1BDF872
:10073000044000220DF106030DF17E0033F8021B88
:100740000A44834292B2F9D1D3439BB29C420FD167
:10075000029ADAF808309A420AD3264849467C229F
:1007600040F8046C03F076F8013F04D0B046C8E7C7
:10077000B8F1FF3F30D0204C204D2149214E20467A
:10078000702203F067F82B681F495B681D2228461A
:100790009847DAF80010284604F004FF2B681B493C
:1007A0005B68012228469847284604F0AFFE94E88B
:1007B0000700277D3780164D164B264603C556F891
:1007C0000A0F2A807168328903C320461A8021B03B
:1007D000BDE8F04FFFF760BF00217C22054806F01E
:1007E0004FFE034BCAF80C3021B0BDE8F08F00BFBC
:1007F000010158549493FF1FD892FF1F6499FF1F63
:10080000A093FF1F4893FF1FFC870000548A00003D
:100810005493FF1F9896FF1F9093FF1F38B5184BF6
:100820000D4619780446FFF771FE164B5B5D637049
:100830004FF0FF3004F0C4FE134BE064224603F196
:100840003005322090805988D18099881181D988CB
:1008500051810833AB4202F108024FF03201F1D16D
:1008600000230F2284F8501084F8443084F8453077
:1008700084F8463084F8473084F84830E28538BD43
:10088000E487FF1FF4870000F47D0000124B1B7803
:10089000DA074CBF114A124A8021980711604CBFF9
:1008A0000E4A0F4A1021116059074CBF0B4A0C4ADF
:1008B00004211160DA064CBF084A094A9B064FF032
:1008C00008014CBF054B064B116001221A60054B15
:1008D0002820198803F068BCA496FF1FC4F00F40BD
:1008E000C8F00F406093FF1F0C4B1B889BB210B5E4
:1008F00003B910BD0A4C03F07BFD0A4A2368126855
:10090000C01A9042F5D903F073FD2060FFF7BEFFD7
:10091000054B1A88013292B21A8010BD4893FF1F0E
:100920000C96FF1FB892FF1FAE96FF1FF8B5044646
:1009300090F8461090F8472090F84830C6886589AE
:100940000089002943D1F1B26ABBC2B27BB12F4EFC
:10095000608F36F81330B4F84260C3F50073EDB21F
:1009600005EB6315ADB22BB283424ADA85B2E36C74
:10097000EDB2D8B223FA02F223FA05F542406A40FA
:10098000013902F001028A4042EA5302013B03337B
:10099000E26400F0010504D94FF0FF3004F010FECE
:1009A000E0642846F8BD194F268F37F81220B4F8B6
:1009B0004070C0B2C2F5007200EB621292B210B287
:1009C000B0421CDBB842C8BFBAB2D2B2BEE7DFF851
:1009D0003CC0E78E3CF81110B4F83EC0F6B2C1F549
:1009E000007106EB211189B20EB2BE4205DB6645ED
:1009F000C8BF1FFA8CF1C9B2A6E7B9B2FBE7B2B221
:100A0000E3E7B342C8BFB5B2B1E700BF8C96FF1FA2
:100A100070B590F8462090F84730C189047CB2B98F
:100A2000C8B24BB1144A32F91330B3F5C87FBCBF1A
:100A300004F0010484F00104013004F0C1FD00F071
:100A400001000CB1C043C0B200F0010070BD0A4EFD
:100A5000C58E36F81220C68FC9B2C2F5007001EB00
:100A6000601080B202B2AA4204DBB242C8BFB0B288
:100A7000C0B2D6E7A8B2FBE78C96FF1F70B490F81F
:100A8000462090F84730C48A018BEAB9A4B24BB132
:100A9000174A32F91330B3F5C87FBCBF01F001012A
:100AA00081F00101438B24B2D3F1010238BF00224F
:100AB000A342B4BF01330023438309B1D24392B2AE
:100AC00002F0010070BC7047094EC58E36F8122046
:100AD000C68FC2F5007204EB2214A4B222B2AA425D
:100AE00004DBB242C8BFB4B2E4B2D0E7ACB2FBE7B9
:100AF0008C96FF1FF0B490F8466090F8475090F83D
:100B00004840C28B038C418C86B1DFF8B0C0C78EE1
:100B10003CF81660B0F83EC0C6F50076D2B202EBE3
:100B2000661292B216B2BE4243DABAB2D2B27DB106
:100B3000224F068F37F81550B0F84070C5F5007594
:100B4000DBB203EB65139BB21DB2B5422DDAB3B233
:100B5000DBB27CB1194E458F36F81440B0F84260D4
:100B6000C9B2C4F5007001EB601189B208B2A842A5
:100B700017DAA9B212489A42006898BF02F1FF330F
:100B8000C9B298BFDBB2014401FB03F1B1FBF2F043
:100B900002FB1012D0B2834294BF00200120F0BCAF
:100BA0007047B042C8BFB1B2E4E7BD42C8BFBBB2F4
:100BB000CEE76645C8BF1FFA8CF2B7E78C96FF1FD9
:100BC000AC92FF1F0378052B15D8DFE803F005076B
:100BD000090B0D0301207047FFF7A8BEFFF718BFF0
:100BE000FFF74CBFFFF786BF044B187840FA01F1BE
:100BF00001F001007047FF20704700BFA496FF1F5F
:100C0000F0B490F82A1090F8284090F8467090F8C8
:100C1000476090F84850C28C013C0139E4B2C9B237
:100C200087B1384BB0F836C033F81730C78FC3F5EB
:100C30000073D2B202EBA31292B213B263453CDA54
:100C40001FFA8CF2D2B296B12E4B078F33F81630C2
:100C5000B0F84060C3F5007304EBA314A4B223B250
:100C6000BB4228DBB342C8BFB4B2013CE4B295B189
:100C7000244B468F33F81530B0F84200C3F50073AB
:100C800001EBA31189B20BB2B34212DB8342C8BF9E
:100C900081B20139C9B21C4B1B7843FA04F40B41F1
:100CA000E4B2DBB2042A2BD8DFE802F013191E23CA
:100CB0000B00B1B2EDE7BCB2D7E7BB42C8BFBAB2D6
:100CC000C0E743EA040000F0010080F00100F0BC3E
:100CD000704704F0010403EA0400F0BC70472343AA
:100CE00003F00100F0BC7047634003F00100F0BC6A
:100CF000704704F00104234083F00100F0BC70470A
:100D00000120E4E78C96FF1FA496FF1F70B4C0F388
:100D10008004C0F340050311240204EB4524DB01E9
:100D200000F0010504EB8524084EDBB22344C0F338
:100D3000401036F8126003EB801002FB01114011E5
:100D400001FB006080B270BC704700BFD087FF1FFE
:100D5000F8B590F8456090F8465090F8474090F804
:100D60002C3090F82E1090F830704EB1214A32F9A4
:100D70001620B2F5C87FBCBF03F0010383F0010366
:100D80008DB11C4AC68E32F81520C08FC2F5007294
:100D900049B201EB621189B20AB2B24219DB824256
:100DA000C8BF81B2C9B24CB1124A32F91420B2F5AF
:100DB000C87FBCBF07F0010787F001075BB90E4B86
:100DC00001311878C9B23A46FFF7A0FF0B4B1880E3
:100DD000F8BDB1B2E6E749B2013101EB4110800044
:100DE00004F0EEFB7FB2064A044B32F817201044A1
:100DF0001880F8BD8C96FF1FA496FF1F6093FF1FFD
:100E0000D087FF1F027890F8453000EBC20210B483
:100E100092886BB10D4C818E34F81330848FC3F5FA
:100E2000007302EBE30292B213B28B4205DA8AB28C
:100E300080F850205DF8044B7047A342C8BFA2B2AF
:100E400080F850205DF8044B704700BF8C96FF1F60
:100E5000424A4349126843482DE9F843424B434C08
:100E6000434EDFF82881DFF828E1424DD1F80090A9
:100E700037784149C8F80090A2421C68DFF8FC802E
:100E800094BF4FF0000C4FF0010C621CAEF800C094
:100E90001A602F800B68012413F4003304800BD1F7
:100EA000A8F81A30A8F86E30A8F8C230A8F81631A1
:100EB000A8F86A31A8F8BE31304D002401270AE0B5
:100EC00033781A43327028460134FFF79BFF062C13
:100ED00005F154050DD02846E1B2FFF773FE07FA7D
:100EE00004F213460028EBD1327822EA0303337070
:100EF000E9E7224D0024012704E00134062C05F126
:100F0000540511D02B78042BF7D12846FFF778FE33
:100F100007FA04F21346B8B1337801341A43062CA9
:100F2000327005F15405EDD198F8FC30052B10D046
:100F300033781B075CBF124B1A88124B48BF4FF423
:100F40007A621A80BDE8F883327822EA03033370AC
:100F5000D3E70D48BDE8F843FFF7FABE8096FF1FC0
:100F60004898FF1FB292FF1FAC92FF1FBFC62D0013
:100F7000A496FF1FD492FF1F50F00F401494FF1F40
:100F8000D087FF1F6093FF1F1095FF1F9C92FF1FCC
:100F90009088FF1F70B52C4C2C482D4A2D49237882
:100FA00005681068542202FB0312281A92F8502098
:100FB00090422FD9284A1088012580B29D4020EA0E
:100FC000050010801088C0074CBF244824488026A4
:100FD0000660108886074CBF20482148102606600E
:100FE000108840074CBF1D481D4804260660108825
:100FF000C6064CBF19481A480826066010888006A5
:101000004CBF164816480126066016480126032BD9
:10101000068006D0042B9ABF0133DBB20023236085
:1010200070BD91F8FC30042B08D913881D43ADB274
:101030000023158003800423236070BD0A4B282001
:10104000198803F0B1F8F6E74C93FF1F4898FF1F8B
:101050009C92FF1F1494FF1FD492FF1FC4F00F40F7
:10106000C8F00F40B292FF1FD087FF1F70B52A242F
:1010700004FB00F000EB8106264D274C82B016449D
:1010800005EB4605BDF8180084F8543084F8550087
:10109000AD88052939D8DFE801F0111A18110320AD
:1010A000012A0BD11D4B53F82560304606F048FA53
:1010B000236802465B681848314698472946164817
:1010C00002B0BDE8704004F06DBA012A1FD0022AB8
:1010D000F4D1134B53F825500EE0012AEED0012D28
:1010E00006D910480192012102F0B0FB019A0125B6
:1010F0002A440D4B53F82250284606F021FA236863
:1011000002465B6804482946984702B070BD691CD6
:10111000D5E700BF1494FF1F1096FF1F5C89FF1FC7
:10112000B888FF1F7C93FF1FD487FF1F30B5204C6A
:10113000204983B004F1080001F09AFF04F108008F
:1011400001F084FF04F1080001F08CFF04F10800B5
:10115000012102F0EFF894F8563033B9012304F17D
:10116000080084F8563002F091F81348002402F089
:10117000AFF8032C4FF018050F4803DD02F0ACF870
:1011800098B1002404EBC40104EB81010A480095E6
:10119000C9B214220A23013402F0D8FA032C0648FB
:1011A000F0DD02F099F80028EBD103B030BD00BFAC
:1011B0001096FF1FD08A00001896FF1F4C4B1B880B
:1011C0002DE9F0415BB1012B65D0022B49484BD092
:1011D000494B0A211922BDE8F04101F0E7BE474C16
:1011E000474E484B0A210A4604F1080001F0DEFE92
:1011F00050250A27718884F85450204684F8557089
:1012000004F0D0F93946192204F108003E4B01F0F0
:10121000CDFE1923B18884F85530204684F8545007
:1012200004F0C0F93946282204F10800374B01F0D8
:10123000BDFE2823F18884F85530204684F85450A8
:1012400004F0B0F9394604F10800314B372201F0BF
:10125000ADFE3723318984F85450204684F8553048
:10126000BDE8F04104F09EB92A4B0A21192201F091
:101270009DFE294B1F481B8833B1284B5021192252
:10128000BDE8F04101F092BE254B50211922BDE886
:10129000F04101F08BBE194C224B0A210A4604F1A1
:1012A000080001F083FE0A2104F1080019221E4BF8
:1012B00001F07CFE552219231C4884F8542084F840
:1012C000553002F0B3FA86B205463146204604F0A6
:1012D00069F93146282002F067FF154A154B158041
:1012E00004F108000A213722BDE8F04101F05EBE9A
:1012F000B492FF1F1896FF1F948800001096FF1FDE
:101300008C96FF1F1C88000028880000348800008D
:101310004088000080880000A696FF1F8C8800008F
:10132000908800004C8800005C8800007C93FF1FC0
:10133000D087FF1F6C8800002DE9F04FB54B1D884A
:1013400085B025BBB44E3488A4B27CB32C46182794
:1013500006E0013402F0FAF91735062CEDB213D08D
:101360003388AE4800979BB2234113F0010F294602
:101370004FF012024FF00A03EBD1013402F09EF954
:101380001735062CEDB2EBD105B0BDE8F08F012D7D
:101390001BD0022D00F0E180032D00F08280042D8F
:1013A000F2D105B0BDE8F04FFFF708BF1825214680
:1013B00017340095994812220A23E4B202F07EF90C
:1013C0008A2CF4D105B0BDE8F08F954B954E1F885F
:1013D000954CDFF88C82B4F90030B8F80020542125
:1013E00001FB0761934291F802B00BF1030B00F08F
:1013F0007A818E4A894852F82330DFF868A20A21A0
:10140000002201F0D3FD8A4B844853F82730502145
:10141000002201F0CBFD0D22802300927F480021A5
:1014200001F034FE0224542303FB076925461626E7
:101430001EE099F800307F497848062212FB0343EA
:10144000624651F823300A2101F0B0FDAA1EB8F817
:101450000010009692B238466E230134FFF706FE64
:10146000A5B26E4801F06AFF0B365D45B6B28BD26D
:101470006A4801F063FFBAF80030AB425FFA86FCBD
:10148000D7D10B23624600936448CDF80CC00021ED
:10149000802302F05BF9614801F066FFDDF80CC0C3
:1014A000C7E7654DDFF8C0910024AA46A04626464E
:1014B0005A48A0F1080701F041FF6049B1F9003036
:1014C0009E4200F0D38007F108000A21224659F815
:1014D000043F01F06BFD042E384600F02C81584A81
:1014E000584932F808B08AF85540522301228AF848
:1014F0005430BBF1000F2AD0594604F053F80BF1D9
:10150000FF3B542303FB0BFB464B13F80BB00BEBD9
:101510008B0B4D4B4D4A38F8033085F855409B44B2
:101520006E2352F82B7085F85430384606F008F8D0
:101530002B6802465B684048394698470D34374867
:1015400001F0FCFE013608F10208E4B2B0E7DAF877
:10155000003038465B689847DBE73D4B1B889BB201
:10156000002B40F091803B4A3B4B1168A3FB0121CB
:10157000C90B8BB2092B29D9632B00F2C4802E4DE5
:101580005822322385F8542085F855302A4804F033
:1015900009F8662132222B6885F8541085F8552009
:1015A0005B6825482D49042298471B4E3488A4B215
:1015B000A4B91825214617340095184812220A2389
:1015C000E4B202F07BF88A2CF4D1DDE61A4D5E22FB
:1015D000322385F8542085F85530D7E700252C466E
:1015E000182707E002F0B2F801341735062CEDB2E7
:1015F0003FF4CAAE3388094800979BB2234113F0E9
:10160000010F29464FF012024FF00A03EAD102F00F
:1016100055F8E9E7BC92FF1FD492FF1F1896FF1FF1
:101620005093FF1F1494FF1F1094FF1FA088FF1FEB
:101630007888FF1FE887FF1F1096FF1F6293FF1F28
:101640005493FF1FB48800009896FF1FE488FF1F83
:101650004893FF1F8096FF1F73B2E745AC880000D8
:101660008496FF1FA492FF1FCC88FF1F0B230093BB
:1016700007F1080000212246802302F067F807F1F5
:10168000080001F071FE1EE7384A394B1288394DC7
:1016900053F822603224002385F85430304685F810
:1016A000554005F04DFF2B68024631465B682846E1
:1016B0009847314B85F8554019882E48632994BFC7
:1016C00054234E2385F8543003F06CFF62213222FC
:1016D0002B6885F8541085F855205B682749254804
:1016E0000522984761E72348254903684FF0020E19
:1016F000002280F8552080F854E05B682A4698471D
:10170000B4F9003075E6B3F57A7F07D2194D52224D
:10171000322385F8542085F8553037E742F20F72AE
:101720009342144D94BF4C224622322385F8542014
:1017300085F855302AE7134B87F855401A89124B24
:1017400053F822406E2387F85430204605F0F8FE07
:101750003B68024621465B683846984707F1080017
:1017600005B0BDE8F04F01F0E9BD00BFB092FF1F2A
:101770009488FF1F1096FF1FCC87FF1FA4880000CE
:10178000A08800005493FF1FC088FF1F08B50C4BB2
:1017900093F8562032B9012203F1080083F856204D
:1017A00001F074FD074801F093FDFFF7C5FD054802
:1017B00001F092FD0028F8D1034B188008BD00BF4E
:1017C0001096FF1F1896FF1FB292FF1F2DE9F04FD2
:1017D000434E444D44484549DFF82CA1DFF82CB175
:1017E000434CDFF82C81DFF82C91424F83B0042268
:1017F000012332802B80019301F03AFC019B3A488F
:10180000194601F097FD384801F020FC364801F0F8
:1018100029FCDAF8003038495B680C2250469847BA
:10182000BBF80010504603F0BDFE504603F06EFEBC
:10183000BBF80010314802F009F83388DFF8D8B05F
:10184000042B36D12B88002B36D1142002F0F2FD68
:10185000112002F091F96080142002F08DF9A0802F
:10186000132002F089F9E080122002F085F920812E
:10187000012002F0A9FD3A68DBF80030A8F800006A
:10188000D31AC82B4FF001022A80D6D9D9F80030DC
:1018900013F02003D1D11A490A88022A0FD83B68D5
:1018A000CBF800303388DFF870B00132042B0A80A7
:1018B000C8D003B0BDE8F08FFFF768FFC5E73380FD
:1018C000FEF792FEDAF800300E495B680E480722F8
:1018D00098470D4803F01AFE3B68CBF80030ACE7A0
:1018E000BC92FF1FB292FF1F1896FF1FD08A000004
:1018F0008C96FF1F4898FF1FB88800007C93FF1F3D
:10190000B492FF1FC88800006499FF1FD087FF1F93
:10191000A696FF1F90F00F406493FF1F0A4B1B68B1
:10192000DB040FD4094B0A4A196812688A1AC82ABC
:1019300008D9084A118829B907491B680B60012397
:1019400013807047704700BF10F00F404898FF1F8A
:101950006493FF1F6896FF1FA892FF1F0A4B1B6826
:101960001B060FD4094B0A4A196812688A1AC82A3A
:1019700008D9084A518829B907491B680B60012317
:1019800053807047704700BF90F00F404898FF1F8A
:101990006493FF1F6896FF1FA892FF1FF8B5284C9D
:1019A0002388012B1FD0274A274BB2F90010274A62
:1019B000274F15882748542202FB01F22A269A5CF9
:1019C0003A8006FB01F101EB82022A4433F812103F
:1019D00001F03CFF204B214A1B6821491360012282
:1019E0000B602280F8BD174B00B31D88013DADB2DE
:1019F00028B20028BCBF052005461D80542101FBEC
:101A000000F1114A174F535C114D104E3B8001EB12
:101A1000C3010A440F4891882B800227378001F0C8
:101A200015FF2988104801F011FFD3E71A88013209
:101A300092B211B20529CCBF024608461A80DDE7F2
:101A4000BC92FF1F5093FF1F1494FF1FA492FF1F0F
:101A50008496FF1F7C93FF1F4898FF1FA896FF1FC7
:101A60006493FF1F1094FF1F6893FF1FF8B5324E59
:101A7000324D36F8101035F81030044698B1304A1F
:101A80001268C2F3C01232B901291CD0022B27D030
:101A9000032B0DD0F8BD012939D0042BF6D100233A
:101AA00026F81430F8BD274A1268C2F30032EAE77C
:101AB000002C30D0244A254B1188254802221A8058
:101AC00001F0C4FE10E02349234A096812688A1A0B
:101AD000B2F5487FDAD90322022B25F81420D7D19A
:101AE0008CB92046FFF75AFF1A4A1C4B12681C4F4C
:101AF0001C491A60012004233A60088026F814303B
:101B000025F81430F8BD0120FFF748FFECE702226A
:101B100025F81420BAE7144A144917880B4A31F9FA
:101B200017100B48138001F091FE114B114833F848
:101B3000171001F08BFED7E76896FF1F8896FF1FEE
:101B400090F00F4010F00F40CC87FF1FBC92FF1F9A
:101B50007C93FF1F4898FF1FA892FF1FA896FF1FA6
:101B60006493FF1FB292FF1F6293FF1F9896FF1F9F
:101B70005493FF1F6893FF1F30B4857801358BB2F3
:101B80001CB2AC4208DC04448BB142B194F844303E
:101B900043B9C8B230BC7047002030BC7047104613
:101BA00030BC70470131013A89B292B2E7E718467A
:101BB000F3E700BF002902DB03D1084670478178B4
:101BC00001312AB1431893F844301BB9C8B27047A9
:101BD000104670470139013A89B292B2FFF7CCBF83
:101BE000AE4B2DE9F0471C88022C17D0012C42D0B7
:101BF000032C01D0BDE8F087A94BAA481E88B5B2D6
:101C000001F002FE00286DD1032DF3D8A64801F0A3
:101C1000FBFD002840F01C81BDE8F087A14801F0E1
:101C2000F3FD002840F0AB809F4801F0EDFD002857
:101C3000E0D09D489D4C01F0F9FD80B203B2022B2B
:101C400048DC002BC0F2DD81034620809849994A88
:101C500031F81310128891423CBF03F1FF33238007
:101C6000FEF730FC9449954A954B096811600122B2
:101C70001A80BDE8F0878B4801F0C6FD002840F0CF
:101C80009A80894801F0C0FD0028B3D08D4B86486A
:101C90001C78894D01F0CAFD542202FB04F28A49E6
:101CA000864B8C5C2D681D6080B203B2A3420A444F
:101CB00000F057815178013989B28B4200F3498194
:101CC000002B824BC0F2A58118807D4B01221A8027
:101CD000BDE8F087022319467348238001F0B6FD62
:101CE0002388B3E76F4801F0A1FD032D81B200F214
:101CF0000A81774B774C33F8153034F81590002B68
:101D000000F02481704F03F1FF38542202FB087267
:101D10000BB292F802A00AF1010A53451FFA89F9A1
:101D200000F35981002BC0F294814B4524F8151023
:101D300040F358815420524600FB0870FFF71CFF07
:101D40000246542303FB0877002A00F03A8107EB90
:101D50000903174401364FF0000E87F8446011461E
:101D6000504883F844E024F8152001F06FFD5249F3
:101D7000524A534B0968116001221A8044E74948CE
:101D800001F054FD494B4A4A198803B2072B32F837
:101D9000112040F3D38011B28B42464B00F3F980FF
:101DA0001880FEF78FFB4449444A454B096811608F
:101DB00001221A8038E7484A424B3A4814881D8865
:101DC000414F01F033FD454B3B491A883B4B0968B5
:101DD00019602A21023C01FB05F19600A4B206EB32
:101DE000010EA64407EB4E0E03B2BEF804E07345A5
:101DF0003FF447AF002A00F0B880032A40F09680F5
:101E0000002C00F09480012C40F00881542202FB49
:101E1000057207EB4101B2F92020B1F83EE0022A39
:101E2000B8BF022292B211B2994200F3B7800FFA02
:101E30008EF199424FF02A0303FB05652C4407EB12
:101E40004407C0F2D880B8801D4B01221A8018E7E1
:101E50001548204C1E4E01F0E9FC82B213B2062B4D
:101E600034F8158036F815703ADC002BC0F2A180EA
:101E700026F81500002A3AD047B1134A013F5423EF
:101E800003FB07234344002283F844200023194620
:101E9000044824F8153001F0D9FCE3E6BC92FF1F9A
:101EA0006293FF1F7C93FF1F6893FF1FB092FF1F79
:101EB000808A0000CC87FF1F4898FF1FA896FF1F4D
:101EC000B292FF1F5093FF1F1494FF1F1094FF1F27
:101ED0005493FF1F9896FF1FA492FF1F8496FF1F25
:101EE0006348002101F0B2FC002326F81530614B55
:101EF000013F542202FB0737B844002324F8153071
:101F000088F84430AEE6042D7FF431AF0BB2032BDA
:101F100000F39880002BC0F2A480012BD4BF0023D3
:101F200001235548554A0181138020E7214407EBDE
:101F300041021146928EB1F83CE074E70823504A02
:101F400050481380194601F081FC2AE724F8153027
:101F50000DE700234C4A46481380194601F076FCF1
:101F6000B3E6494B1880BDE8F087002CDFD0012C88
:101F70005ED1542202FB057207EB4101B2F90AC09F
:101F8000B2F90820B1F83EE09445A8BF624692B28B
:101F900049E73C481A8001F059FC02E72A2303FB79
:101FA00005652C4407EB44073648BA8001F04EFC27
:101FB0004AE72F48062101F049FC062326F8153090
:101FC0005AE7B94411462F4889F8442024F81520CF
:101FD00001F03CFCCBE600212A4801F037FC00214F
:101FE00024F815105420524609B200FB0870FFF780
:101FF000E1FD0246A5E62348A7F804E001F026FC2F
:1020000022E7002319461A48238001F01FFC238889
:102010001CE61748198001F019FC56E60A195421EC
:1020200007EB420201FB0571928EB1F81EE0FAE661
:102030000A19542107EB420201FB0571928EB1F897
:1020400006E0F0E600210F4801F000FC00231946ED
:1020500067E751460B4801F0F9FB1FFA8AF1534636
:1020600063E62146074801F0F1FB2146012358E7CA
:102070006893FF1F1494FF1F5493FF1F4893FF1F83
:10208000CC87FF1F7C93FF1F1094FF1F124A134B36
:10209000B2F90010124A70B51088124D124C542239
:1020A00002FB01F22A269A5C2A8006FB01F101EB71
:1020B0008202024404F1140033F8121001F0C6FB4E
:1020C0000A4A29880A4B118020460122BDE8704047
:1020D0001A8001F0BBBB00BF5093FF1F1494FF1F79
:1020E000A492FF1F8496FF1F6893FF1F1094FF1F89
:1020F000B292FF1FF8B50A2002F09CF917200221C6
:1021000002F070F90D20022102F06CF9002002218A
:1021100002F068F90120022102F064F90320022193
:1021200002F060F90C20022102F05CF90520012187
:1021300002F058F90620012102F054F9072001218C
:1021400002F050F90820012102F04CF9022001218F
:1021500002F048F9304B3149314E324D00241C70A9
:102160002046022201F0BEFF16202F49042201F072
:10217000B9FF15202C49042201F0B4FF0F202B4990
:10218000042201F0AFFF29490422102001F0AAFF28
:102190000C2002F005F9FEF7C9FF40F2E24002F020
:1021A00049F93768224B2349234A244847F080776E
:1021B00037601E6846F001061E6003F073F920497F
:1021C0001D4A204803F06EF91A2001F0D5FC06469E
:1021D0001B2001F0D1FC06441E2001F0CDFC06447A
:1021E0001F2001F0C9FC304403F0E4F92846E1B2B5
:1021F0000134FEF713FB062C05F15405F6D1FEF76A
:1022000073FAFFF743FF172002F0DEF800B1F8BDC4
:10221000BDE8F840FFF7DABA58E400E06187FF1F35
:10222000FCED00E01494FF1FA1040000AD040000C9
:10223000001000E071040000BF270900C092FF1FDA
:10224000650400006C96FF1F38B5144B1449B3F9B0
:102250000040144B542000FB04101A88807801328F
:1022600092B2023090421A80B6BF0222931E1A80A8
:102270000D4A0E4812884FF02A0505FB04F4B8BF3A
:10228000002304EB82021A4401EB4201898801F029
:10229000DDFA074B01221A8038BD00BF5093FF1FA3
:1022A0001494FF1FA492FF1F8496FF1F7C93FF1FAF
:1022B000B292FF1F38B50C46C9B20546FEF726F9A3
:1022C0002146284801F0C2FA05EBC4032648998844
:1022D00001F0BCFA022C37D0244B254A198810880B
:1022E000013189B20023884285F8453085F84630AF
:1022F00085F8473085F8483022D053881C488B42F7
:1023000019D093881A488B4210D0D388184A8B4230
:1023100003D118490023CB80D380174A1749184BA3
:1023200014800220012208801A8038BD114D00233C
:10233000AB808380E9E70F4D00236B804380E0E7AB
:102340000C4813800380D8E70E4B00225A83A3F871
:102350006E20A3F8C220A3F81621A3F86A21A3F8DF
:10236000BE21B9E76893FF1F7C93FF1F5093FF1FA7
:102370005493FF1F9896FF1F8496FF1FA492FF1F80
:10238000B292FF1F1494FF1F10B50E4C0E49238804
:102390000E4801339BB21AB2042AC4BF002213466E
:1023A00031F81210238001F051FAB4F90020084BE3
:1023B000084833F9121001F049FA074B01221A803C
:1023C00010BD00BF6293FF1F5493FF1F6893FF1F50
:1023D0009896FF1F7C93FF1FB292FF1FF8B51E4B0C
:1023E0001B689B0614D41D4C1D4D22682B68D31A04
:1023F000C82B0DD91B4E3388012B27D023F00202A6
:102400003AB1032B25D0184A23682B601360F8BD1E
:10241000F8BD164A164BB2F90010164ADFF85CC038
:1024200017881548542202FB01F24FF02A0E9A5CDD
:10243000ACF800200EFB01F101EB82023A4433F8C4
:10244000121001F003FA01233380DCE7FFF7FCFEF2
:10245000D9E7FFF799FFD6E790F00F404898FF1FA4
:102460006493FF1FBC92FF1FA896FF1F5093FF1F8E
:102470001494FF1FA492FF1F7C93FF1F8496FF1FDD
:1024800010B50E4C0E4923880E48013B9BB21AB280
:10249000002ABCBF0422134631F81210238001F039
:1024A000D5F9B4F90020084B084833F9121001F0AF
:1024B000CDF9074B01221A8010BD00BF6293FF1FA8
:1024C0005493FF1F6893FF1F9896FF1F7C93FF1F75
:1024D000B292FF1FF8B5324B1B685B072ED4314D0B
:1024E000314C2A682368D31AC82B27D92F4E33883A
:1024F000012B29D023F002020ABB2D4A2D4BB2F941
:1025000000102D4ADFF8BCC017882C48542202FB6B
:1025100001F24FF02A0E9A5CACF800200EFB01F19C
:1025200001EB82023A4433F8121001F08FF90123D3
:102530003380234A2B6823601360F8BDF8BD032B5A
:10254000F7D1FFF79DFFF4E71E4B188805281FD031
:10255000174A1D4BB2F900201988164B542606FB6A
:1025600002F606EBC0000FB206EBC70618441E4485
:102570008088B080052905D0542000FB0230FFF789
:1025800099FED6E7542000FB023000268685F3E74B
:102590000D4A074B1188B3F90020064BEAE700BF4C
:1025A00090F00F404898FF1F6493FF1FBC92FF1FDD
:1025B0005093FF1F1494FF1FA492FF1F7C93FF1FD3
:1025C000A896FF1F8496FF1F1094FF1F38B5124B6B
:1025D0001249B3F90020124B0D881888114B124C88
:1025E0002A2101FB02F101EB85010144542000FB8B
:1025F00002F233F81150995C204601F027F9294680
:1026000004F1140001F022F90849094B00200122CD
:1026100008801A8038BD00BF5093FF1F8496FF1FAB
:10262000A492FF1F1494FF1F6893FF1FBC92FF1F0B
:10263000B292FF1F70B56F4CFEF756F923889BB21C
:10264000002B40F0D1806C4B1B88002B40F0C980E0
:10265000FEF74AF92388674A9BB2002B40F0BC8002
:10266000664D674B2A681B68D31AC82B00F2B180ED
:10267000FEF73AF923885F4A9BB2002B40F0A48012
:10268000604B1A78002A40F08B80FEF72DF92388E2
:10269000584A9BB2002B7ED15B4E33889BB2002BF5
:1026A0006ED1FEF721F92388524A9BB2002B48D104
:1026B000564B1B883BB1564B29681A6841F2707320
:1026C0008A1A9A4233D8FEF70FF92388494A9BB2F7
:1026D000002B3ED14F4B1B889BB2002B36D1FEF70F
:1026E00003F92388434A9BB2002B44D14A4E738896
:1026F000002B3CD1FEF7F8F823883E4A9BB2002B12
:1027000030D1338853BBFEF7EFF82388394A9BB2A8
:1027100093B9424B1A8892B242B9414A2968126869
:102720008A1A192A02D901221A8070BD70BDFDF7DC
:102730005BFFFFF74BFFC6E700231380FEF788FB24
:10274000E7E700231380FEF783FBB1E7FEF722FCE7
:10275000C5E700231380FEF77BFBBBE70020FFF7F4
:1027600085F9D0E700231380FEF772FBC9E701204B
:10277000FFF77CF9BEE700231380FEF769FBB5E79E
:10278000FFF7A8FEFFF72AFEFFF7C8F8FFF7E6F805
:102790000023338085E700231380FEF759FB7BE796
:1027A000002211201A7001F0E7F91E4E70801420EB
:1027B00001F0E2F9B080132001F0DEF9F080122080
:1027C00001F0DAF9308160E700231380FEF740FB67
:1027D00056E7FFF705FA4BE700231380FEF738FBB7
:1027E0003EE7FEF7D3FF33E700232380FEF730FBFD
:1027F00029E700BFAE96FF1FB292FF1F4898FF1F48
:102800006493FF1FD692FF1FAC96FF1FBC92FF1F61
:10281000A896FF1FD492FF1F6896FF1F9088FF1F86
:102820009C92FF1F8C96FF1F08B5FFF703FFFCE784
:10283000F8B501F04BFA1F4B1F4D204818600024DB
:102840001C7103F108001E491E4A83F8544083F8A6
:10285000554083F8564000F025FD284616211522E4
:1028600000F090FF05F114000F21102200F08AFF04
:10287000154F164B164E1C708025184639463246A9
:102880005D7304F021FB134B3946324618461C7029
:102890005D7304F019FB104B10491888104B114D53
:1028A000114C1B78114A2B800838238051F82030B6
:1028B0001360F8BD1096FF1F6893FF1FD8780000C3
:1028C0007089FF1F3D2A0000B90400006C96FF1FAD
:1028D000C887FF1FC092FF1FCC87FF1F1079000021
:1028E000E487FF1FA492FF1F8496FF1FB892FF1F6B
:1028F0000B4B1A6851040CD442F4804141F00101A1
:102900000848196000680849D860096819611A60A8
:1029100070470449044A0968D96012681A6170470F
:1029200000C00240B096FF1FB496FF1F1249134B20
:102930000A68DFF858C012482DE9F003DFF850802C
:10294000104E114C42F480594FF038474FF410723A
:102950004FF07845C1F80090C8F80020CCF800206E
:102960003760256018601A6842F440621A60BDE85A
:10297000F003FFF7BDBF00BF3C80044000C0024031
:1029800000001F80B096FF1FB496FF1F04C00440D4
:1029900018B00440CB0770B40FD50478254B264AF5
:1029A0001A6044F000444FF00042DA6201301A46E7
:1029B0005C63D36A002BFCDA01391E4B1E4A1A6095
:1029C000052900EB010633D84C0811D0194D831CA2
:1029D000002213F8020C13F8011C013241EA002115
:1029E00041F01041A2421846696303F10203F0DB93
:1029F000B04211D20F4A014610460D784B7843EA97
:102A00000525D36A13F0F00FFBD045F010430231D7
:102A100043638E42836BF0D844B1064A1146D36AB1
:102A200013F0F00FFBD0013C8B6BF8D170BC7047FA
:102A30000324CBE700C00240000C1F8000B583B028
:102A400007290AD8DFE801F0091F0443480D1717CA
:102A5000002A47D02A4B08221A60012003B05DF8F3
:102A600004FB02A8012100F8042DFFF793FF0120C9
:102A700003B05DF804FB18461146FFF78BFF0120F9
:102A800003B05DF804FB0A20012101F0ABFC042037
:102A9000012101F0A7FC0920012101F0A3FCFFF7AF
:102AA00045FF0121042001F089FC012001F0C2FC56
:102AB0000021042001F082FC0A2001F0BBFC04206C
:102AC000012101F07BFC012003B05DF804FB6AB931
:102AD0000B4B10221A60C0E762B10A4B4FF4005250
:102AE0001A60BAE7084B08221A60B6E7064B1022B4
:102AF0001A60B2E7054B4FF400521A60ADE700BF11
:102B000084F00F4004F00F4088F00F4008F00F40B1
:102B100070B49DF80C4090F84B6090F84950013C1F
:102B200052FA84F49642E4B210D3AC4210D390F837
:102B30004A4090F84820013B51FA83F08C42C0B2E1
:102B40000BD390420BD3012070BC7047AC4201D331
:102B5000A242ECD8002070BC70479042FAD3814268
:102B600094BF0020012070BC704700BF10B5002347
:102B70008C680121A04710BD10B500238C6803218B
:102B8000A04710BD10B500238C680221A04710BDDE
:102B900010B500238C680521A04710BD10B58C68C6
:102BA0000621A04710BD00BF2DE9F04180460E462A
:102BB000551E002315F8014F5BB9FF2C1CD022468F
:102BC0004046B4680521A0470028F2D10020BDE8A6
:102BD000F081FF2C12D0FE2C45D0EF2CE9D8DF2C51
:102BE00015D8CF2C1CD8BF2C23D82306E1D42046DF
:102BF00000F03EF80023DDE70123DBE722464046F4
:102C0000B46805210023A0470028D2D1DEE704F0F4
:102C10000F020023B46840460221A0470023C9E701
:102C200004F00F020023B46840460321A0470023AC
:102C3000C0E7002213460421B7684046B84704F0B5
:102C40000F073F01023707F0FE07384600F010F883
:102C5000002304210122B4684046A047384600F012
:102C600007F80023A6E70120BDE8F08101207047A6
:102C700049F6404303FB00F010B101387FF4FDAF8B
:102C8000704700BF2DE9F041A2F10A06174605463C
:102C90000C4698460B2E0FD8DFE806F0060E0E0EF7
:102CA0000E0E1C160E0E0E220222FFF75FFF2846A4
:102CB00021462B4AFFF778FF284621463A464346ED
:102CC000BDE8F04100F018BC264AFFF76DFF012077
:102CD000BDE8F081244AFFF767FF0120BDE8F081DD
:102CE0004E68224AFFF760FF3279520062F04F02CD
:102CF000214602F0FE022846FFF74AFF28462146F9
:102D00000122FFF73FFFB368727921462846FFF79B
:102D100045FF284621460022FFF72EFF2146284680
:102D2000124AFFF741FF32795200013262F04F023E
:102D30002146D2B22846FFF72BFF28462146012222
:102D4000FFF720FF7279B368214613442846FFF746
:102D500025FF284621460022FFF70EFFACE700BF03
:102D6000A88A0000888A0000948A0000A08A0000D7
:102D70004318405C5B7803EB002080B2704700BFD3
:102D80000020704790F829000130C0B2704700BFA2
:102D9000704700BF08B5FFF7FBFF18B1022801D04C
:102DA000032008BD062008BD0621FFF7E1BF00BFD4
:102DB0000821FFF7DDBF00BF807A7047C07A7047F7
:102DC0002DE9F84FD0F808B09BF800408146204626
:102DD0000F46FFF7DDFF06462046FFF7DBFF012E1B
:102DE000824658460CBF4FF00F084FF0FF08FFF720
:102DF000E3FF04465846FFF7E1FF05465846FFF754
:102E0000D7FF602F2FD930B30BEB00036124BD42F5
:102E100014D3AC420BD911E0BC422CD09A7808EA0A
:102E200002021344AC42534408D00134E4B21A788D
:102E3000FF2AF1D1AC4203F10103F6D1002089F859
:102E40001C0089F81F0089F8200089F81D0089F806
:102E50001E00BDE8F88F5846FFF7A6FF40B10BEB08
:102E600000034124D3E75846FFF79EFF402FF5D8D3
:102E70000BF11103CBE7C6B1022E16D002F00F0101
:102E80000239120989F81E1089F81D205A7802F0BB
:102E90000F01120989F8201089F81F209A78120969
:102EA00089F81C201846BDE8F88F89F81F205A7849
:102EB00089F82020DA7889F81C201A7989F81D20F1
:102EC0005A7989F81E201846BDE8F88F2DE9F04F91
:102ED000894685B0194615460746FFF771FF044637
:102EE00000284CD0BB681878FFF754FFBA7F7B7F6F
:102EF00097F8206097F81FA00096AD1A5FFA85F842
:102F00009944C6EB0805EDB25FFA89F983462A4673
:102F1000494653463846FFF7FBFD58B30AF1070A06
:102F2000CAF3C40203922EB3531EDBB25C4403F116
:102F3000010B039BCBB104EB0B06CA4614F8013B13
:102F40000093514638462A46002300F0DFF90AF183
:102F5000080CB4425FFA8CFAF0D10135EDB2454568
:102F600008D0039B3446002BE5D10135EDB2454531
:102F70002646F6D1387F40B205B0BDE8F08F40B2AA
:102F800005B0BDE8F08F00BF2DE9F041456A044669
:102F90000F4690461E46A84700EB080239462046D9
:102FA0003346D2B2BDE8F041FFF790BF2DE9F041C2
:102FB0000C46416A90461E4607468847337840448F
:102FC0005FFA80F88BB10025214638464246FFF76C
:102FD0007DFF16F8013FC0B204440544E4B2EDB2EF
:102FE000002BF1D12846BDE8F0811D46FAE700BF6D
:102FF000836810B4C3B190F82820C2B1012A1DD053
:10300000597B80F829109A7B80F82A2090F82B4071
:103010004BB252B29B1A402C9BB203D0DBB204FBE2
:1030200003F39B0980F82C305DF8044B7047597905
:1030300080F829101A7B80F82A20E7E7D97B80F8EE
:1030400029101A7C80F82A20E0E700BF002280F8CF
:103050002820FFF7CDBF00BF014B4362704700BF80
:10306000812D0000014B4362704700BF852D000099
:1030700083688B4210B5044604D08160FFF7B8FF27
:10308000014B636210BD00BF812D00002DE9F04FA0
:1030900083B099429DF830B08CBFC3EB0108C1EBFF
:1030A00003085A451E468CBFCBEB0203C2EB0B0351
:1030B000DBB20193019B5FFA88F898450C460746FE
:1030C00092463BD3CDF804804FF000099846B442B5
:1030D00005D951462246DA4634468B461646019BB0
:1030E000DA452CBF4FF0FF0B4FF0010BB442C3F396
:1030F00047050ED91FE02146524600F0F9F8C8EB0B
:103100000505EAB2D5B201342B06E4B20AD4A642D0
:1031100011D3514622463846B9F1000FEBD000F0EA
:10312000E7F8ECE7019D0AEB0B031544A6425FFAB2
:1031300083FAEDB2EDD203B0BDE8F08F31462246FE
:103140005E4654468B4692464FF00109BFE700BFEA
:1031500038B5012100232222017404468274836061
:10316000C36043748361FF21E21801330E2B82F8A0
:103170003410F9D1012584F831502046FFF76CFF57
:1031800000234021064A84F8285084F8293084F826
:103190002A3084F82C3084F82B10626438BD00BFCC
:1031A0008137000070B50D460446436C02209847F5
:1031B00029460A222E6820460023B047636C054644
:1031C00003209847636C00209847284670BD00BFD5
:1031D00070B504460D46436C02209847636C01208D
:1031E00098472E682946204614220023B04704F150
:1031F00048032E68294620461722B047636C0020FA
:10320000984770BDF8B504460D46436C02209847B8
:10321000636C012098472E6820462946152200231A
:10322000B047064630B12F6829462046172204F1E0
:103230004803B847636C002098473046F8BD00BF8C
:1032400030B54168044683B00DF107030D6846228E
:10325000A8479DF80730616823700D680DF10703DA
:1032600020464722A8479DF80730616863700D68C3
:10327000204648220023A8476168E074204600F1F8
:1032800048030C681722A04703B030BD10B5416851
:103290000446FFF787FF18B12046FFF7D1FF012052
:1032A00010BD00BFF8B505460E461746FFF750FFA4
:1032B0000023FE20EC1801330E2B84F83400F9D1E2
:1032C0006E602846B760BDE8F840FFF7DFBF00BF7B
:1032D0004168FFF77DBF00BF836910B5044603B1A5
:1032E000984720466168BDE81040FFF78BBF00BFDC
:1032F00038B5456880F82D1080F82E2000F12D0398
:103300002C6829463222A04738BD00BF70B54568F9
:103310009DF8106080F82D1080F82E2080F8303055
:1033200080F82F6000F12D032C6829463B22A0472E
:1033300070BD00BF80F83110704700BFC37C302BD8
:103340000CD0282B06D0022B14BF0123032380F8B6
:1033500031307047FF2380F831307047FF2380F809
:10336000313080F832307047002380F831307047B8
:1033700002780023013A8370C2700371704700BF66
:1033800010B48378017842780B44DBB293428370A7
:1033900011D2C47803792144C9B28A4298BF02F19C
:1033A000FF3203F1010398BFD1B20371C1705DF820
:1033B000044B0120704700205DF8044B704700BFAC
:1033C00000230B7083784B704379013B8B70C3787B
:1033D000CB70704730B4CA784B78012A1FD0032ACB
:1033E00013D019460022C57884789D4234BF00234B
:1033F000012343EA02008C428CBF002100F001014E
:1034000003EA0200084330BC7047A3F10804E4B2A9
:10341000A34219462CBF002201222346E3E703F111
:103420000801C9B28B4294BF00220122DBE700BF32
:1034300030B485788468521BD2B2072A03D9407908
:1034400002F007020444012000FA02F2D2B22BB9C2
:10345000635C23EA0202625430BC7047635C1A4327
:10346000625430BC704700BF10B40C464A78817873
:10347000914206D8C178914203D3437921788B4297
:1034800002D85DF8044B704723795DF8044BFFF7D1
:10349000CFBF00BF2DE9F041CB788D780C460646B2
:1034A000032B26D8DFE803F0021F1B1700274FF07D
:1034B000010809E0227863786D0042443B4415F02E
:1034C000FF052270637012D02B06F3D530462146DB
:1034D000FFF7CAFFEEE7FF274FF00008F4E70027E9
:1034E0004FF0FF08F0E701274FF00008ECE7BDE8D8
:1034F000F0810027B846E7E710B5143A82B04C686F
:10350000332A23D8DFE802F02A3922482222222255
:10351000222222222222222222222222222222228B
:103520002222222222224F22222222222222221A56
:1035300022222222222222222222562519462046F7
:103540000193FFF747FF019B002838D1012002B00B
:1035500010BD62781A70012002B010BDA3686279B4
:10356000002103EB420203F8011B9342FBD12046EA
:10357000FFF7FEFE012002B010BD2046FFF700FF5E
:103580000028E4D0A3686279002103EB420203F82B
:10359000011B9342FBD1D9E720461946FFF710FFE4
:1035A000012002B010BD20461946FFF75DFF012043
:1035B00002B010BD62791A70012002B010BD204621
:1035C0001946FFF767FF0120C1E700BF2DE9F0476B
:1035D000072B82B0994607468A4616461DD91D46D6
:1035E0000C464FF0FF08083D2146CDF800803846D4
:1035F00032460023EDB2FFF789FE0834072DE4B20E
:10360000F1D8A9F1080303F0F8030AF1080A53FA04
:103610008AFA5FFA8AFA09F007037BB183F007039D
:103620000133FF2203F0070302FA03F3DBB2009336
:103630003846514632460023FFF768FE02B0BDE827
:10364000F08700BF2DE9F047072B82B09946074667
:103650000E4692461DD91D4614464FF0FF08083D00
:103660002246CDF80080384631460123EDB2FFF7FF
:103670004DFE0834072DE4B2F1D8A9F1080303F098
:10368000F8030AF1080A53FA8AFA5FFA8AFA09F08B
:1036900007037BB183F007030133FF2203F0070325
:1036A00002FA03F3DBB20093384631465246012357
:1036B000FFF72CFE02B0BDE8F08700BF2DE9F04116
:1036C00082B006469DF8204000940D461746984665
:1036D000FFF71EFA10B902B0BDE8F0813046294666
:1036E0003A464346FFF772FF304629463A4623469C
:1036F000FFF7A8FF08F1FF3155FA81F130463A464D
:103700002346C9B2FFF79EFF013C57FA84F2D2B2BA
:1037100030462946434602B0BDE8F041FFF756BFA8
:103720002DE9F0419DF8185080460F4614461E467C
:103730002246404639463346FFF748FF6A1E0134A9
:1037400012F0FF05E4B2F3D1BDE8F0812DE9F041BC
:1037500082B080469DF8204000940F4616461D46D4
:10376000FFF7D6F910B902B0BDE8F08140463946FE
:1037700032462B46089402B0BDE8F041FFF7D0BFB7
:10378000704700BF38B504460C4B82720025417269
:1037900023610846E560022100F024FEA07A0221A0
:1037A00000F020FE607A012100F008FEA07A0121DD
:1037B00000F004FE2572204638BD00BF19FCFFFF53
:1037C00038B50446807A00F0FFFD0546607A00F0C7
:1037D000FBFD227A0B4B02F00F0240EA45009200FB
:1037E00052FA80F2985C207200F03003102B05D062
:1037F000202B02D1E368013BE36038BDE36801336D
:10380000E36038BD60920000C26803699A420AD042
:10381000C2689342B4BF01234FF0FF330360C36813
:103820000361012070470020704700BF43680BB957
:10383000C0687047C26892FBF3F003FB1020184485
:1038400090FBF3F203FB1200704700BFC1600161FF
:10385000704700BF844641EA000313F003036DD1B3
:10386000403A41D351F8043B40F8043B51F8043B43
:1038700040F8043B51F8043B40F8043B51F8043B4A
:1038800040F8043B51F8043B40F8043B51F8043B3A
:1038900040F8043B51F8043B40F8043B51F8043B2A
:1038A00040F8043B51F8043B40F8043B51F8043B1A
:1038B00040F8043B51F8043B40F8043B51F8043B0A
:1038C00040F8043B51F8043B40F8043B51F8043BFA
:1038D00040F8043B51F8043B40F8043B51F8043BEA
:1038E00040F8043B403ABDD2303211D351F8043B8A
:1038F00040F8043B51F8043B40F8043B51F8043BCA
:1039000040F8043B51F8043B40F8043B103AEDD238
:103910000C3205D351F8043B40F8043B043AF9D289
:10392000043208D0D2071CBF11F8013B00F8013B5C
:1039300001D30B8803806046704700BF082A13D369
:103940008B078DD010F003038AD0C3F10403D21A81
:10395000DB071CBF11F8013B00F8013B80D331F8B5
:10396000023B20F8023B7BE7043AD9D3013A11F835
:10397000013B00F8013BF9D20B7803704B784370A0
:103980008B788370604670472DE9F00F3A4A3B49C7
:1039900013681B06FCD40B6813F08003F8D172B6D1
:1039A000374A1178002963D03648374C3749D4F864
:1039B00000A0D0F800B0D1F80090D4F80C80D0F876
:1039C0000CC0CF68324E334DDA44D144C844C444AD
:1039D0006744C7F34E0747F400473760D5F800A0A7
:1039E000D0F820B0D1F82090D4F82C80D0F82CC09A
:1039F000CF6ADA44D144C844C444674405F5FF257E
:103A0000C7F34E0700F5002005F5FC6547F40047B5
:103A1000776001F500210C34D5F800A0D0F800B093
:103A2000D1F8009004F50024DA44D4F80080D0F8EE
:103A30000CC0CF68D144C844C444674406F500268E
:103A4000C7F34E0747F4004737602F6AD0F820C00D
:103A50000E6A256AC46AC86A67443E4435442C44E9
:103A60002044C0F34E0040F4004041F8100C1370A5
:103A700062B6BDE8F00F704724B0034024B00B409D
:103A8000B997FF1F3CB0034038B0034040B003403B
:103A90002CB0034058B0034030B42948294A2A4B7F
:103AA0002A4D6024E121047011701B78284C082BEA
:103AB00030D00A2B2748284937D00C2B0CBF352291
:103AC0005D2212232A60236002600B60234B24498D
:103AD0001B78244ABBB101230B601360224B23499E
:103AE0001B78234A012B26D9042B0FD9082B1ED96A
:103AF000102B94BF862387230B6013601D4B01227C
:103B00001A7030BC70470B601360E7E784230B60CA
:103B10001360F3E700F58E200F49083021221323AC
:103B20002A60236002600B60D0E73922F7E7852323
:103B30000B601360E2E780230B601360DEE700BFD9
:103B400000400740014007408889FF1F08B003403C
:103B50000CB0034008B00B400CB00B40BC97FF1FEB
:103B600020B0034020B00B408989FF1F24B00340E0
:103B700024B00B40B997FF1F0D282DE9F04103D960
:103B800017282CD80E38C0B2364B374A1B78165C33
:103B9000002B2FD1320631D472B6344D344C2F461F
:103BA000012326602B7062B672B623681B060CD404
:103BB0003B781BB9F4E72B78002BF1D062B601F00B
:103BC00057FD72B623681806F5D52A4A00231068F7
:103BD0002B7062B6284B1B781841BDE8F081A0F12C
:103BE0001A03052B37D9A0F12203062B36D8183833
:103BF000C0B2C9E7FFF7C8FE3206CDD572B61F4D79
:103C00001F4F204C06F040085FFA88F806F03F0688
:103C10003B68B8F1000F1AD023F010033B6001237A
:103C20002660164A2B7062B672B6236819060CD449
:103C300013781BB9ECE72B78002BE9D062B601F0C2
:103C400017FD72B623681B06F5D50F4ABEE743F091
:103C500010033B60E3E70938C0B295E70020BDE8F8
:103C6000F08100BFB997FF1F7C920000BB97FF1F38
:103C700000B0034010B00340B897FF1FBA97FF1F72
:103C80000CB00B4000B00B4010B00B400B4B0C4A7B
:103C9000196841F48051196013783BB1094B8022B7
:103CA0001A70094B80F30C0018807047054BC02236
:103CB0001A70054B80F30C00188070472C8004406C
:103CC000BC97FF1F21C00C4000C00C4070B5174BC3
:103CD000174E596818689A68DB6884B06C460FC440
:103CE000337899076D460AD4114944F6216301E0FF
:103CF000013B02D00A78D207FAD504B070BD0D4C52
:103D00000D490E4B802633200322267008701A704E
:103D100072B6073C45F001052046A84762B62378F5
:103D200013F07003E0D0237004B070BD94920000D3
:103D300001000240070002400B0002400A0002405E
:103D400000B5B0F5006F83B009D2094B1B78DB07D3
:103D500009D500F1A050007803B05DF804FB002005
:103D600003B05DF804FB0190FFF7B0FF0198F0E7A6
:103D70000100024000B5B0F5006F83B00DD20E4BCC
:103D80001B78DA070CD500F1A05003788B4204D0E1
:103D9000094A01701378DB07FCD503B05DF804FB1A
:103DA00001900091FFF792FF0198009900F1A05057
:103DB00003788B42ECD1F0E7010002401F4B10B5B5
:103DC0001C681C60E00304D51D4B1A680AB11B680F
:103DD0009847A10304D51A4B5A680AB15B68984703
:103DE000E20704D5164B1A6C0AB11B6C9847A3075F
:103DF00004D5134B5A6C0AB15B6C9847200704D565
:103E00000F4B9A6C0AB19B6C9847610704D50C4B19
:103E1000DA6C0AB1DB6C9847220304D5084B5A6E62
:103E20000AB15B6E9847630306D5054BD3F8802033
:103E300012B1D3F88030984710BD00BFA0A0044055
:103E4000C097FF1F2C4B10B51C681C60200704D5C1
:103E50002A4B5A6A0AB15B6A9847E10604D5274B98
:103E60009A6A0AB19B6A9847620604D5234BDA6ABC
:103E70000AB1DB6A9847230604D5204B1A6B0AB1B6
:103E80001B6B9847A00604D51C4B5A6B0AB15B6BA1
:103E90009847E10704D5194BDA6B0AB1DB6B9847F9
:103EA000A20704D5154B9A6D0AB19B6D984763071D
:103EB00004D5124BDA6D0AB1DB6D9847A00504D525
:103EC0000E4BDA6E0AB1DB6E9847E10504D50B4B59
:103ED0001A6F0AB11B6F9847620504D5074B5A6FDA
:103EE0000AB15B6F9847230504D5044B9A6F0AB15A
:103EF0009B6F984710BD00BFA0B00440C097FF1F44
:103F00001E4B10B51C681C60E00704D51C4B9A685A
:103F10000AB19B689847210604D5194B5A690AB122
:103F20005B699847E20604D5154B9A690AB19B690B
:103F30009847630704D5124BDA690AB1DB699847E1
:103F4000200704D50E4B1A6A0AB11B6A9847A107CD
:103F500004D50B4B9A6B0AB19B6B9847A20604D50C
:103F6000074B1A6D0AB11B6D9847630604D5044BC5
:103F70005A6D0AB15B6D984710BD00BFA0C00440E8
:103F8000C097FF1F114B10B51C681C60E00404D5DE
:103F90000F4BDA680AB1DB689847A10404D50C4BD3
:103FA0001A690AB11B699847A20604D5084B1A6E14
:103FB0000AB11B6E9847E30606D5054BD3F884205B
:103FC00012B1D3F88430984710BD00BFA0900440D0
:103FD000C097FF1F094B10B51C681C60A20704D5D1
:103FE000074B9A6E0AB19B6E9847E30704D5044BC2
:103FF000DA6F0AB1DB6F984710BD00BFA0D0044054
:10400000C097FF1F10B4114B53F8302092F8804234
:1040100034B1012379B182F880305DF8044B7047E8
:1040200003EBC0035B681A6851B922F002021A6000
:104030005DF8044B704782F800315DF8044B70471F
:1040400042F003021A605DF8044B7047A49200002E
:10405000234A02EBC00301295B6813D004291DD059
:1040600052F83020002082F8800219B94FF4807293
:104070001A60704702291ED0032924D040F203128F
:104080001A60704752F830004FF4A27280F8801224
:104090001A601A6822F020021A60704752F8301035
:1040A0004FF4A272012081F880021A601A6842F06F
:1040B00020021A6070474FF480721A601A6842F04A
:1040C00003021A6070474FF480721A601A6842F057
:1040D00002021A601A6822F001021A60704700BFDB
:1040E000A492000021282DE9F0012BD8042A29D818
:1040F000DFE802F02E3134032B004FF41024194A6C
:10410000194BDFF87880DFF878C0184F184E194D3A
:10411000C3F89C8102EBC002C3F8A0C15268C3F887
:10412000A471C3F8A861C3F8AC5172B61368124DFC
:1041300023F4702343F080763443136045F8201055
:10414000146062B6BDE8F00170474FF43024D6E742
:104150004FF40024D3E74FF44024D0E74FF4202459
:10416000CDE700BFA49200000082FF1F453E000083
:10417000013F0000D53F0000C097FF1F853F0000B2
:10418000BD3D000030B4054B054C0649002210250A
:104190001A60226008601D6030BC704714D0034074
:1041A00004D0034000D0034038B5614B28280446B2
:1041B0001B782BD000294CDD012505FA03F28A4239
:1041C00002D8212835D938BDC21ED0B2012839D92C
:1041D000202C49D0192C47D05648006800FB01100C
:1041E00020FA03F31D2A00F29A80DFE802F0918A98
:1041F000837C9898756E98989898989898989867EE
:10420000605952984B989898989898440B2B08D9D5
:104210000C2B1CBF0C3B19410846BDE83840FFF78A
:1042200035BDC3F10C0399400846BDE83840FFF79F
:104230002DBD2946FFF7E6FE20462946BDE8384059
:10424000FFF706BF3C48006800FB011020FA03F3AB
:10425000C8E72128B7D80021FFF7D4FE2046012166
:10426000BDE83840FFF7F4BE3448006800FB011099
:1042700020FA03F3B6E73249324A0B604FF4517328
:10428000136038BD3049314A0B604FF451731360ED
:1042900038BD2F492F4A0B6040F24443136038BDAC
:1042A0002D492E4A0B6040F24443136038BD2C491F
:1042B0002C4A0B6040F24443136038BD2A492B4A14
:1042C0000B6040F24443136038BD2949294A0B6012
:1042D00040F24443136038BD2749284A0B6040F23E
:1042E0004443136038BD2649264A0B6040F24443DC
:1042F000136038BD2449254A0B6040F244431360E3
:1043000038BD2349234A0B604FF45173136038BD05
:104310002149224A0B604FF45173136038BD212CA0
:104320003FF651AF7F29D4BF00210121204693E7FA
:104330008A89FF1F088003400890034008800B40D3
:1043400010800B4048A0044018800B404CA0044053
:104350001880034008B004401080034004B00440BB
:104360004080034018C004403880034014C004401B
:104370002880034010B00440208003400CB004406B
:104380003080034010C00440488003401CC00440FB
:104390001890034034900440109003403090044043
:1043A00030B1102828BF1020034BC0B218707047DE
:1043B000014B0120187070478A89FF1F212801D8FE
:1043C000FFF720BE704700BF212806D8044B53F8E2
:1043D000303093F80002C0B270470020704700BF31
:1043E000A4920000212801D8FFF732BE704700BF19
:1043F00072B60C4B0C4A0D491B681268096862B60C
:10440000490102D5322B88BF01320949C3F5EA338D
:10441000BF33A1FB03039B094FF47A7000FB02300A
:10442000704700BF18E000E04898FF1F04ED00E06F
:104430008988888838B50546FFF7DAFF04469DB1BC
:10444000FFF7D6FF001BB0F57A7F09D3013D0AD0F4
:10445000FFF7CEFF04F57A74001BB0F57A7FF5D232
:1044600001F006F9ECE738BD38BD00BF2DE9F84F83
:10447000344BDFF8F0A0344ADFF8ECE0DFF8EC80F2
:10448000DFF8ECC0314F324E324D334C33483449B3
:10449000DFF8E0904FF4000BC3F800B04FF0807BE2
:1044A000C3F800B04FF0007BC3F800B04FF0806B52
:1044B000C3F800B04FF0006BC3F800B00023CAF897
:1044C00000304EF6FF7AC2F800A02822C8F800207B
:1044D000CCF80020CEF800203A60326007F5FF27C4
:1044E0002A6006F5FF26226005F5FF25026004F527
:1044F000FF24092008600CF5805CC9F8003001F544
:104500000021C8F8FCAF07F5FC6706F2DC7605F57C
:10451000FB6504F5FB6408F6FC78C8F80420CCF8C9
:104520000020CEF8E40F3B60C6F800A02A602260AD
:104530000860FFF7B1FAFA20FFF77CFFBDE8F84FFB
:1045400000F004BD08E100E008800340248003403F
:104550002C800340348003403C800340448003406F
:1045600000800340048003401C8003400C80034013
:104570001480034004900340431E032B70B411D8F1
:1045800072B60A4A52F8230048B10949058831F841
:104590001360446842F82340721B21F8132062B66E
:1045A00070BC7047002070BC704700BFA498FF1F0C
:1045B0006C9BFF1F013803280BD872B6074B53F8CA
:1045C000203043B100205B680130002BFBD162B684
:1045D0007047002070471846F9E700BFF898FF1FA2
:1045E000F0B472B61B4D1C4E0123E9189A0011F865
:1045F000011C194F090742F0010405D556F8321085
:1046000061B156F83420BAB10133052BEDD162B651
:10461000124B00221A70F0BC00F020BD0F49104C64
:104620000D7807EB43130830013D58600D7047F8D3
:10463000324062B6F0BC7047084B0A4A197807EB63
:10464000C405083001396860197047F8342062B633
:10465000F0E700BFE09300000080FF1F2199FF1FDB
:1046600088004000C8004000431E032B30B418D817
:104670001B4A400140F01000104472B6194CE25C35
:10468000032A03D8DFE802F022240F1F164A52F84B
:10469000230000B3154A52F82300416042F823106A
:1046A00062B630BC704705220D88E25410F0080F46
:1046B0000CBF8823C82343EA0543083103604160E7
:1046C00062B630BC704708300422EDE70322EBE706
:1046D00008300222E8E742F82310044ADEE700BF70
:1046E0000080FF1F3099FF1FF898FF1F0899FF1FD8
:1046F0002DE9F04FDFF800B3DFF800A387B043E007
:10470000A94D4FEA930805EBC809013CD9F80420EC
:1047100003F00803E4B2A2F1080003F0FF01002B4C
:1047200040F0FE8055F838301B0C22F8083C002B76
:1047300000F0ED809D4E22F8061C42F8041C56F84D
:104740002420002A00F04182994E56F8242050601F
:10475000984A46F8240032F814100B4422F814301A
:1047600000F05CFC002800F02982934A934B19F07A
:10477000080F00F1080008BF1346C9F8040045F807
:10478000383008238BF800309BF80040E4B2610712
:104790001AD58B4B1B78A3B18A4A137803F0FF011B
:1047A00023B14B1EDBB2137003B900BE864A1378E7
:1047B00003F0FF012BB14B1EDBB21370002B00F096
:1047C000C88104238BF8003004F0080303F0FF02D3
:1047D000002B00F0C9809AF80030DBB21C098FD1A1
:1047E0009A08714C54F8323004EBC201C3F38303CE
:1047F000013B49680C2B00F28680DFE803F07A7AEF
:104800008484848484844184848407000F686F488E
:104810004B68DFF8A8C144F832C0DFF8E4916C4D72
:10482000436040F28162BBB20026012193420760DF
:10483000C9F800602661A661297000F2E380B3F533
:10484000D06F80F03A82B3F5817F00F00B8300F2E5
:10485000D981802B00F01E83822B40F01783838840
:10486000042B00F233835B4F5B4A9B001F4416709E
:1048700056703B789E0740F12D8311700221EEE1C6
:10488000DFF87C91D9F8001041B3544F544B38886D
:104890004F4D1E7895F800C0402834BF0246402294
:1048A000801A80B2BCF1000F388086F0010746F014
:1048B00002061F7004EBC6070CBF8823C8238CF0C8
:1048C000010C43EA0243796085F800C044F83630B1
:1048D000002800F0B8808818C9F800003B4B1A88FF
:1048E000B2F5A06F0FD13F489A780021597002703D
:1048F00009E0364B188842F22103984200F0A78065
:104900002E4B44F83230384901230B7039E72A4ADC
:104910002A4B19F0080F08BF134645F8383030E726
:1049200000F09CFB314A324F52F82430002B00F04B
:1049300050815968385D42F8241003F10802C9F823
:104940000420032805D8DFE800F0022C29260322E2
:104950003A551A8819F0080F0CBF8823C82343EA78
:10496000024345F838300CE7E00700F1F5802106F6
:1049700000F13E81A20706D51E4B1F4A187802217E
:10498000C0B218701170E30602D51B4B10221A70CA
:1049900007B0BDE8F08F04223A55DAE705223A5510
:1049A000D7E702223A55D4E70080FF1FA498FF1FE3
:1049B0005098FF1F6C9BFF1F88004000C8004000FC
:1049C0002C99FF1FB598FF1F3499FF1F1899FF1FDF
:1049D000B498FF1FC02007402499FF1F6098FF1F55
:1049E0002099FF1F9820074094200740F898FF1F48
:1049F0003099FF1F88200740802007409020074003
:104A00004C98FF1F42F22102934200F09C8043D851
:104A1000B3F5086F00F01F81B3F5106F40F03682D8
:104A2000B54BB64E82781A7006F1800703E008365F
:104A3000BE4200F09381336A1A06F8D5706A0838CE
:104A400000F00CFBF3E7402A7FF446AF43E7AC4BA2
:104A5000DD1D11F8010B03F8010FAB42F9D1A94B91
:104A60001B68862B00F02581A74BA84D1E7828785F
:104A700046F00201002886F0010604EBC1071E7013
:104A800080F001004FF000060CBF8823C8237E6031
:104A9000287044F8313033E742F22122934240F04B
:104AA000FE81DFF8A8C29A4F9A4B8278DCF80000AA
:104AB0003860B44605911A700021049103910E46A6
:104AC0000A46914B187840F0020704EBC708C8F873
:104AD0000420059A002A40F0DF808822019102928A
:104AE000DDF80C80029A85F800C042EA080280F0E6
:104AF000010844F8372083F80080002940F0A180A5
:104B00003F2E20D90904002648F00202059F1870A4
:104B1000BCF1000F04982F7004EBC2080CBF4FF0DB
:104B2000880C4FF0C80C019FC8F804004CEA010142
:104B300003463B4444F832100EB9402F03D1764A65
:104B4000C9F800301680DFF8D481012388F80030DE
:104B5000D9E600F0C3FB34E6684B70486A49DFF8D9
:104B6000D8A11A614FF0020B80F800B06C4C0A70AB
:104B70004FF00D0B1C609C609A61DFF8D4918AF8AD
:104B800000B0DFF8B8C1674F674E684DDFF8C481E9
:104B9000DFF8C4B1FF219F244FF0010A89F800100B
:104BA000C3F804808CF80010C3F80CB03A70317070
:104BB0002C7080F800A007B0BDE8F08F5C4B45F882
:104BC00038001A7801321A70DBE546F82400594E95
:104BD000BEE53B5D032B65D80FF2040858F823F0BF
:104BE00083470000834700003D4C0000374C000025
:104BF0005149524B80220D2008701A70A2077FF590
:104C0000C2AEB9E640F20232934240F03C81838862
:104C100003F07F03042B00F355814088002840F007
:104C20005181454A05919B001A448446137843F00C
:104C30000203137040E701233B55A2E500233B55D7
:104C40009FE540297FF65EAF4022A1F14006019228
:104C50004FF4800158E7284B394A1B781370B0F89D
:104C600006C08C4580F04981274B187840F0020738
:104C700004EBC701BCF1400F34BF664640264A60D2
:104C8000324404924FEA06480122C6EB0C01CDF8EB
:104C90000C804FF0000C05924FF0C8080191CDF840
:104CA00008801DE719F0080F0CBF022303233B55B2
:104CB00067E5244B0F211970D6E623494A68002A7C
:104CC00000F0F6804788B0F804C001F10C0305E05D
:104CD0000A690C330C31002A00F0EA8033F80C6CBE
:104CE000BE42F5D133F80A6C6645F1D13F0A032F75
:104CF0000CBF11780989B2E72C99FF1F0080FF1FB4
:104D0000739BFF1F749BFF1F2099FF1FB498FF1F09
:104D10007C9BFF1F4499FF1F6098FF1F9420074052
:104D200088004000982007408C20074084200740DE
:104D30002199FF1F5098FF1FC02007408020074087
:104D40002499FF1FB598FF1FE49300004898FF1FA8
:104D5000882007406498FF1FB898FF1F6E4A6F4E67
:104D60006F4FCDF8149000230395984691461D4649
:104D700004966C49485908B905E03046466800F089
:104D80006DF9002EF9D1684A66495059049A0023FA
:104D90004B51535108B905E03046466800F05EF9C2
:104DA000002EF9D117F808305F49604A0020023B15
:104DB0004851505129F8020F032B07D8DFE803F0C0
:104DC000320232024FF0010207F808200435102D9C
:104DD00008F10108CDD1DFF870C1554B039DDDF816
:104DE000149004954FF0000883F800800126654672
:104DF000504B3344B70013F8013C05F8043B1B0744
:104E000015D447F00203013647F00307052E44F896
:104E1000338044F83780EBD1049D2A78059282F0E4
:104E2000010C49E64FF0000107F80810CEE700F04A
:104E3000F5F804EB461300F10802002855D03E486F
:104E40005A6044F8370000F0E9F847F0010304EB3A
:104E5000C30200F1080100283ED05160374A44F8EF
:104E60003320CEE7838803F07F03042B24DC4088C3
:104E700010BB334A05919B001A448446137823F0F3
:104E80000203137018E6B3F5A06F0CD02C4A0F2361
:104E9000137058E62B4A022116705670DFE642F274
:104EA00021329342F2D101204FF0000C059003E62D
:104EB00023490F230B7046E6DFF884800F2388F820
:104EC000003040E61E480F2303703CE61C4F0F23C2
:104ED0003B7038E60221C2E615490B7847F0010223
:104EE000013344F832000B708BE711490B78B7009F
:104EF000013344F837000B70A5E7402934BF0E4654
:104F00004026330497190120891B039304974FF01F
:104F1000000C0590D5E500BF6A9BFF1F5098FF1F4E
:104F20003099FF1FA498FF1FF898FF1F0899FF1FD3
:104F30002199FF1FE093000088004000C800400056
:104F4000C02007402499FF1FC42007402DE9F84FD7
:104F500001F0D6FD234C002108466318605008314B
:104F6000882958604FF000021E4BF6D11E49DFF829
:104F70009CA0D1F800B0DFF89890DFF89880DFF8B7
:104F800098C01A4F1A4E1B4D1B4C1C484BF4802BDB
:104F9000C1F800B0C3F307218AF80010C3F307413A
:104FA00089F800101B0EFF2188F800308CF80010E3
:104FB0003970317012494FF0010985F800900A707C
:104FC000104A114982F800904FF070084FF40073B6
:104FD0004FF0100C81F80080236080F800C0BDE81D
:104FE000F88F00BF0080FF1F3480044088200740F6
:104FF000102007409420074008E100E00821074006
:10500000002107408420074049E400E09C2007403D
:10501000B0200740B42007408020074072B60D4AF8
:105020001168B1FA81F30B2B10D84FF00040D84033
:1050300021EA0001116062B6074803EBC303DB00FD
:10504000C2180021C15010465160704762B600205E
:10505000704700BF8C89FF1F0084FF1F0D4B0E4A55
:10506000C31AA2FB03131B090B2B0CD80B4A127893
:1050700052B972B60A4A4FF00040116820FA03F3A1
:105080001943116062B67047064A1278002AF0D0C0
:10509000FFF7A6BA0084FF1F398EE3382199FF1F5E
:1050A0008C89FF1F2C99FF1F38B50F4C206878B1F1
:1050B00043880288C118013393420D7A02D243809B
:1050C000284638BDFFF7CAFF00232846236038BDB5
:1050D000064B1B782BB10320FFF74EFA2060002807
:1050E000E6D14FF0FF3038BD4099FF1F2C99FF1FCC
:1050F00010B5094C206818B143881844007A10BDD7
:10510000064B1B782BB10320FFF736FA20600028EE
:10511000F2D14FF0FF3010BD4099FF1F2C99FF1FB7
:10512000044B054A1B6890881BB11A885B88D31A08
:10513000184470474099FF1F6C9BFF1F10B50B4B25
:105140001B788BB10A4C206848B1FFF787FF00231A
:1051500003202360FFF710FA30B1FFF77FFF032031
:10516000FFF70AFA0028F8D110BD00BF2C99FF1FE5
:105170004099FF1F2DE9F84FDFF8E8A001220D4606
:1051800083468AF8002031B3DFF8DC80324FD8F84C
:10519000001071B3DFF8C0904A88C2F14004A54204
:1051A00038BF2C46101980B2083200262D1B4880CB
:1051B0000A4489F800603CB15C441BF8010B02F81A
:1051C000010BA345F9D148883F2809D8234A052176
:1051D0001170002DDBD100208AF80000BDE8F88FA7
:1051E00040220A800420FFF73FFA0022C8F800207E
:1051F000ECE71B4E32782AB3DFF85C904DF2E904FD
:1052000007E0013C17D03A78AAB900F031FA3278B9
:10521000C2B10420FFF7CEF90728F2D84FF00103FE
:105220008AF80030FFF7FAFEC8F8000088B90D4B85
:10523000013C1870E7D1012389F800304FF0FF30AE
:10524000BDE8F88F00238AF800304FF0FF30BDE84A
:10525000F88F0146A0E700BF3C99FF1F3499FF1F5C
:105260002C99FF1F3599FF1F3899FF1F00B583B098
:1052700002AB012103F8010D1846FFF77BFF03B0D5
:105280005DF804FBF8B5114B1B788BB1104E114D36
:10529000346801272F7064B10F4A638800271770A4
:1052A000214623800420FFF7DFF9376000232B70AD
:1052B000F8BDFFF7B3FE084B28B1014604201C706F
:1052C000FFF7D2F9F2E71F70F0E700BF2C99FF1F3C
:1052D0003899FF1F3599FF1F3499FF1F38B50E4BC2
:1052E0001B7803F0FF0563B90C4C216851B14B8862
:1052F0000B800420FFF7B8F9256038BD084B012268
:105300001A7038BDFFF78AFE0028F7D00146BDE8C5
:1053100038400420FFF7A8B93599FF1F3899FF1FBF
:105320003499FF1F08B5034A034B012111601B6824
:10533000984708BD0C7103405099FF1F08B5034AF8
:10534000034B012111605B68984708BD1C71034045
:105350005099FF1F08B5034A034B012111609B6858
:10536000984708BD2C7103405099FF1F08B5034AA8
:10537000034B01211160DB68984708BD3C71034075
:105380005099FF1F2DE9F0074578194A194C1A4F1B
:1053900006692B0103EB020903EB040A4FF0000836
:1053A0004FF0030CC0F804A0C0F8089047F825603F
:1053B00043F80280195143F802C04278417B4432DD
:1053C000D2B202F1604303F5644302731970027BA9
:1053D00053119B0003F1604303F5614302F01F0288
:1053E000012101FA02F21A60BDE8F007704700BF20
:1053F00008710340007103405099FF1FF8B50E4B30
:105400001A7842B90D4C0E4E2768012547F4000763
:10541000276032601D700B4A0024135D094DE6B20F
:1054200023B10134042CF8D10020F8BD4670FFF7F9
:10543000A9FF01202855F8BD4C99FF1F3C8004406E
:10544000007003404899FF1F70B48268104C1149E6
:1054500000231360027B012602F01F05521106FA99
:1054600005F544F8225042788B544B1E033113F853
:10547000012F5AB98B42FAD10748084B0849012439
:105480000460186820F4000018600A7070BC70474F
:1054900080E100E04899FF1F007003403C80044019
:1054A0004C99FF1F037870B504460D46164653B954
:1054B000256131462046FFF7A1FF10B10120207081
:1054C00070BD207070BDFFF7BFFF00232370EFE7B2
:1054D000037810B504460BB1FFF7B6FF0023237025
:1054E00010BD00BFF8B506460F4662B11446002550
:1054F000336817F8011B1B6830469847013C054488
:10550000F6D12846F8BD1546FBE700BF00B5064AB0
:10551000036812885B6883B001A9ADF804200222F9
:10552000984703B05DF804FBB4930000F0B58646DD
:105530008BB0002A30D0012A08BF0A2239B32124B7
:1055400000E0FCB2B1FBF2F502FB1511C9B209296A
:1055500094BF30313731CEB229460AAD2544671E9B
:1055600005F8246C0029ECD133B1013CE4B20AAB5C
:1055700023442D2203F8242CDEF8003001A95B68B7
:1055800070462144C4F1220298470BB0F0BD30228E
:105590008DF825202124E7E70368C9B21B689847E6
:1055A0000BB0F0BD0029BABF49422D2300230A22C7
:1055B000FFF7BCBF08B1014B186070476099FF1F2F
:1055C00070B440B110490A683AB9104BB3FBF0F21D
:1055D0000B6000FB123070BC70470D4C0D4B0E4D34
:1055E00084FB02641444D617C6EB244403FB142244
:1055F00005FB04F444F2A71303FB0243002BE5DA96
:1056000003F10043013BE1E76099FF1F42CE0C1F0D
:105610005F0B4E831DF30100ECF4FFFF08B5FCF7B0
:1056200069FDFDF701F900F023F8FAE7FFF778BD0F
:10563000FFF73ABDFFF75CBDFFF724BEFFF77EBD65
:105640000846FFF713BE00BF08461146FFF792BD9C
:10565000704700BF044B054A1A604FF47A7100226C
:1056600099601A711A7370476499FF1FC093000004
:1056700010B5154C237803B110BD01232370FFF73B
:105680004FFD58B900F02EFB70B900F0B7FE88B995
:1056900001F05EF9A0B90023237010BDFFF7D8FF19
:1056A00000F020FB0028F0D001F0E6FA00F0A6FEA2
:1056B0000028EDD001F06CFB01F04AF90028EAD097
:1056C00001F0F2FBE7E700BF7499FF1F024B1A6875
:1056D00001321A60704700BF4898FF1F08B5104C90
:1056E00008E0236859050DD423681A050FD42368F0
:1056F000DB0411D423685803F3D5FEF7F9FF2368C0
:105700005905F1D500F06EFB23681A05EFD500F0BE
:10571000F5FE2368DB04EDD501F086F9EAE700BF6A
:105720003480044008B5FFF7D9FF00BF014B1022B9
:105730001A80704700200540704700BF024A136876
:1057400018441060184670479089FF1FEFF31380CC
:1057500070B9EFF310836BB9EFF305825AB94FF4C8
:105760008070EFF311822AB1824238BF1046704731
:105770004FF0FF3070470F2A01D81846F1E7014B70
:10578000D05CEEE7F0E300E010B4002300E001336A
:10579000B0FBF2F402FB1400092894BF303037301C
:1057A000C0B2C8542046002CF1D1CA18547043B17D
:1057B0002246885CCC5C8C54C8540132013B9A422E
:1057C000F7DB08465DF8044B704700BF2DE9F84F42
:1057D000204B1B6883460BB101221A70DFF88880CA
:1057E0001D4D98F800401D4F1D4E01343F2C8ABFBF
:1057F0004FF000095FFA84F94C46AA462B78A34281
:1058000015D1FFF7A3FF40281FDC33791B06F5D520
:105810009AF8003001333F2B86BF00221346DAB2DC
:10582000FB5CDBB2F3712A702B78A342E9D00D49FF
:105830000B4B5FFA8BFB07F804B00120BC22087009
:1058400088F80090DA70BDE8F88FFF28D6DDFFF702
:105850000FFFD3E7089AFF1F059AFF1F8099FF1FCC
:1058600000A00640049AFF1F0C9AFF1F2C4B2D4AE4
:10587000D3F800C02C492DE9F0074CF4806CC3F834
:1058800000C02A4F2A4E2B4D2B4C127800233B7020
:1058900033702B7023700B70002A3BD0152A2CD04C
:1058A000264B1B78012B30D0052B03D1244B4FF412
:1058B00051721A60234B244D2449C0F3443AC0F37B
:1058C000471904224FF002083C27402600F01F0031
:1058D0004FF0880C83F800A04FF4005483F8019037
:1058E00098729A7083F813805A7583F810C0DF702D
:1058F0002E700C60BDE8F0077047154B40F2133274
:105900001A600E4B1B78012BCED1124B4FF4517203
:105910001A60CFE7104B40F213321A60C0E700BFA5
:1059200034800440C099FF1F049AFF1F7C99FF1F19
:105930007D99FF1F0C9AFF1F059AFF1F9489FF1F77
:105940001CC0044000A006402DE400E004E100E09B
:1059500018C0044044A0044040A00440144B9B786D
:1059600000F0030203F0EC03134300F00F014207C1
:105970000F4A48BF43F010030429937013D00C4B17
:105980005A790B4B02F0EF02C10648BF42F01002F9
:105990005A719B79820603F0EF03054A48BF43F032
:1059A000100393717047937943F040039371E6E7D6
:1059B00000A00640144B1B685B052DE9F0411FD584
:1059C000124C237823B1FFF753FE2378002BFAD132
:1059D000DFF854C00E4F0F4E0F4D104C10481149B8
:1059E00000234FF40058CCF8008040F20312FB7003
:1059F00032602A60226803700B701AB101231370A1
:105A0000BDE8F081BDE8F08134800440049AFF1FB6
:105A100000A0064040A0044044A004407899FF1F25
:105A20007C99FF1F7D99FF1F84E100E00A4A38B589
:105A30000546137803F0FF04002BFAD12846012114
:105A4000FEF7D0FC28462146FEF7B8FC034A044B7B
:105A500052F835201A6038BD049AFF1FA492000046
:105A6000089AFF1F10B409B140F08000164B1A7855
:105A7000904214D0154C246864050FD502F07F02C3
:105A8000012A1DD0052A12D0002900F07F020CBF88
:105A900044216021012A0ED0052A03D018705DF838
:105AA000044B70470A4A41F440711160F6E7084A16
:105AB00000241460E8E7074A41F440711160EDE703
:105AC000044A00241460DFE79489FF1F34800440F7
:105AD0001CC0044044A00440104B1A7890420AD0E5
